:020000040800F2
:100000009041002079020008810200088302000864
:10001000850200088702000889020008000000002D
:100020000000000000000000000000008B0200083B
:100030008D020008000000008F02000891020008F5
:10004000930200089302000893020008930200083C
:10005000930200089302000893020008930200082C
:10006000930200089302000893020008930200081C
:10007000930200089302000893020008930200080C
:1000800093020008930200089302000893020008FC
:1000900093020008930200089302000893020008EC
:1000A00093020008930200089302000893020008DC
:1000B000090C0008C50C0008F90C000893020008A0
:1000C00093020008930200089302000893020008BC
:1000D000930200089302000893020008F50D00083F
:1000E000930200089302000893020008930200089C
:1000F000930200089302000893020008930200088C
:10010000930200089302000893020008930200087B
:10011000930200089302000893020008930200086B
:10012000930200089302000893020008930200085B
:10013000930200089302000893020008930200084B
:10014000930200089302000893020008930200083B
:10015000930200089302000893020008930200082B
:10016000930200089302000893020008930200081B
:1001700093020008930200089302000800000000A8
:1001800093020008930200089302000893020008FB
:1001900093020008930200089302000893020008EB
:1001A00093020008930200089302000800F002F88E
:1001B00000F052F814A696E8000CB244B344DA45B5
:1001C00001D100F049F8BAE80F000FA696E8300018
:1001D000A5EB040504EB0607AAEB0704A7F101074A
:1001E0004FEA15154FEA3414A4F10104AC4201D3CF
:1001F00000F032F813F0010F18BFFB1A43F00103AF
:1002000000F001F8DBE71847E01E0000001F0000C7
:10021000103A24BF78C878C1FAD8520724BF30C832
:1002200030C144BF04680C60704700007047000094
:100230000023002400250026103A28BF78C1FBD8EF
:10024000520728BF30C148BF0B6070471FB501F08F
:100250007CFE1FBD10B510BD00F036F81146FFF74B
:10026000F5FF01F0C3FA00F054F803B4FFF7F2FF12
:1002700003BC00F057F800000948804709480047D0
:10028000FEE7FEE7FEE7FEE7FEE7FEE7FEE7FEE746
:10029000FEE7FEE704480549054A064B70470000A3
:1002A000990B0008AD010008903B00209041002010
:1002B000903D0020903D002070477047704700003F
:1002C00000487047080000207546FFF7F9FFAE466A
:1002D00005006946534620F00700854618B020B552
:1002E000FFF7D8FFBDE820404FF000064FF00007B1
:1002F0004FF000084FF0000BAC46ACE8C009ACE88A
:10030000C009ACE8C009ACE8C00921F007018D467E
:10031000704710B50446AFF300802046BDE810409A
:10032000FFF7A3BF01491820ABBEFEE7260002007D
:100330007047000043F63001C4F20201086840F043
:100340001000086041F20001C4F202014FF0553084
:10035000086041F20401C4F202010020086041F289
:100360000802C4F202024FF0AA31116041F20C01FE
:10037000C4F20201086041F21801C4F202014FF018
:10038000FE7008607047000040F62041C4F2000192
:10039000086840F0010008607047000081B08DF8E7
:1003A00003009DF8030045F61001C4F20001086047
:1003B000FFE745F61400C4F200000068800700283B
:1003C00001D4FFE7F5E745F61800C4F20000006825
:1003D00001B0704743F64001C4F20201086840F4DE
:1003E0008000086043F63001C4F20201086840F062
:1003F0000200086040F20041C4F20201086840F4C3
:100400002000086040F20441C4F20201086840F490
:100410004060086040F20841C4F20201086840F4FC
:100420007000086040F20C41C4F20201086840F418
:10043000A000086040F22441C4F20201086840F4C0
:100440008840086045F60001C4F20001086840F4E5
:1004500000400860086820F40040086045F6040287
:10046000C4F20002106840F02D00106045F61C0236
:10047000C4F20002E120106045F62002C4F200023E
:100480002E201060086840F00100086070470000EE
:1004900084B08DF80F0002918DF807209DF80700B9
:1004A00000909DF80F0045F61001C4F200010860AD
:1004B000FFE745F61400C4F200000068800700283A
:1004C00001D4FFE7F5E745F61800C4F20000006824
:1004D000FFE70098032820DBFFE7FFE745F614005D
:1004E000C4F2000000684006002801D4FFE7F5E7E9
:1004F00045F61000C4F20000006802994A1C0292FE
:10050000087045F60001C4F20001086840F48060FC
:100510000860009801380090DBE7FFE745F614001B
:10052000C4F2000000684006002801D4FFE7F5E7A8
:1005300045F61000C4F20000006802994A1C0292BD
:10054000087045F60001C4F20001086820F48060DC
:100550000860086840F400700860FFE745F6140082
:10056000C4F2000000684006002801D4FFE7F5E768
:1005700045F61000C4F2000000680299087004B04B
:100580007047000045F60001C4F20001086840F41D
:1005900080600860086840F480700860FFE745F6F6
:1005A0001400C4F200000068C00708B9FFE7F6E7CE
:1005B0007047000045F60001C4F20001086840F4ED
:1005C000007008607047000081B08DF80300FFE7FD
:1005D00045F61400C4F2000000680006002801D4AB
:1005E000FFE7F5E79DF8030045F61001C4F20001AE
:1005F0000860FFE745F61400C4F2000000684007F9
:10060000002801D4FFE7F5E701B0704783B00290FE
:100610004FF22440019001980299B0FBF1F00138AB
:10062000009043F64001C4F20201086840F0010066
:1006300008600C21C4F20001086840F00100086065
:100640002821C4F20001FF20086000982C21C4F288
:10065000000108602421C4F20001002008604EF26D
:100660000011CEF20001086840F0805008604FF0A1
:100670008041086840F00100086003B07047000046
:1006800080B584B043F64001C4F20201086840F02E
:100690000200086042F20040C0F2F40003904FF400
:1006A0007A720292039802995143B0FBF1F001383B
:1006B0000190039801990131029A5143B0FBF1F086
:1006C0000090019840F22841C4F2000108600098AF
:1006D00040F22C41C4F20001086040F22441C4F20F
:1006E00000010020086040F20C41C4F200010868DB
:1006F00040F0010008601D2000F050FC62B640F29E
:100700000041C4F20001086840F00100086004B034
:1007100080BD000080B584B0039043F64001C4F270
:100720000201086840F00400086042F20040C0F294
:10073000F4000290029803994FF47A725143B0FB8F
:10074000F1F001380190029801990131039A514367
:10075000B0FBF1F00090019840F62801C4F20001CE
:100760000860009840F62C01C4F20001086040F6D1
:100770000C01C4F20001086840F0010008601D206F
:1007800000F00CFC62B640F60001C4F200010868FB
:1007900040F00100086004B080BD000080B5022078
:1007A00000F01CFC80BD000080B582B00A200090E3
:1007B00000F0F4FF009840F61842C4F202020192E1
:1007C0004FF40051116000F0E9FF01994FF0005023
:1007D000086002B080BD000043F63001C4F202019F
:1007E000086840F001000860086840F002000860F6
:1007F0000021C4F20201086840F4807008600868B3
:1008000040F48060086040F20041C4F202010868D0
:1008100040F001000860086840F0805008600868F7
:1008200040F4804008601821C4F202014FF48010A7
:1008300008604FF40010086040F21841C4F2020151
:100840004FF4803008604FF0804008604FF40000A3
:100850000860704780B584B043F61C32C2F20002D3
:100860000292D2207521012300F0AEF802980078A0
:10087000682827D1FFE7002000908DF80F009DF831
:100880000F20D22001906B2100F0C0F801980721C1
:100890008DF80F109DF80F20192100F0B7F800997E
:1008A00001988DF80F109DF80F201C2100F0AEF874
:1008B000009901988DF80F109DF80F201B2100F072
:1008C000A5F8FFE704B080BD80B586B0D2203B21FB
:1008D0000DF11202062300F077F89DF812109DF832
:1008E000130040EA012143F60830C2F20000018003
:1008F0009DF814209DF8151041EA022143F60A32B2
:10090000C2F20002009211809DF816209DF8171087
:1009100041EA022143F60C32C2F200020192118038
:10092000B0F9000001F0A6FA41EC100B51EC100BED
:100930009FED230B53EC102B0393029201F03EF931
:1009400041EC100B51EC100B01F006F90146009838
:1009500043F61032C2F200021160B0F9000001F05B
:1009600089FA029A039B41EC100B51EC100B01F039
:1009700025F941EC100B51EC100B01F0EDF801469C
:10098000019843F61432C2F200021160B0F900007F
:1009900001F070FA029A039B41EC100B51EC100B22
:1009A00001F00CF941EC100B51EC100B01F0D4F8F4
:1009B00043F61831C2F20001086006B080BD00BFE6
:1009C000000000000000D04080B584B08DF80F001A
:1009D0008DF80E1002928DF80730FFF7D3FD9DF8C9
:1009E0000F00FFF7DBFC9DF80E00FFF7EDFDFFF7B2
:1009F000C9FD9DF80F00013002999DF80720C0B293
:100A0000FFF746FDFFF7D6FD04B080BD80B582B08C
:100A10008DF807008DF806108DF80520FFF7B2FD60
:100A20009DF80700FFF7BAFC9DF80600FFF7CCFD24
:100A30009DF80500FFF7C8FDFFF7BCFD02B080BDC3
:100A400080B500F0D1FD00F05DFD00F0BBFD00F0D1
:100A5000E5FF014640F26A00C2F200000180008812
:100A600000F010FB80BD000086B0002105910491CC
:100A7000022003900291019043F60800C4F20200A4
:100A8000006800F00C0005900598009040B1FFE769
:100A9000009804280ED0FFE70098082814D059E0E9
:100AA00040F20001C2F2000142F20040C0F2F40044
:100AB000086059E040F20001C2F2000147F6400030
:100AC000C0F27D1008604FE043F60400C4F202005B
:100AD0000168C1F380510291006800F03F0001906D
:100AE000029888B1FFE7019947F64000C0F27D10F7
:100AF000B0FBF1F043F60401C4F202010968C1F34E
:100B000088114843049010E0019942F20040C0F27D
:100B1000F400B0FBF1F043F60401C4F202010968ED
:100B2000C1F3881148430490FFE743F60400C4F280
:100B30000200006800F44031022000EBD130039045
:100B400004980399B0FBF1F040F20001C2F20001F9
:100B5000086009E040F20001C2F2000142F20040E8
:100B6000C0F2F4000860FFE743F60800C4F2020098
:100B70000068C0B2010941F66E70C0F60000405C2A
:100B80000590059A40F20001C2F200010868D040C9
:100B9000086006B0704700004EF68851CEF20001A2
:100BA000086840F47000086043F60002C4F20202D4
:100BB000106840F00100106043F60801C4F2020121
:100BC0000020086011684FF6FF73CFF6F6631940F6
:100BD000116043F60403C4F2020343F21001C2F2AF
:100BE00000411960116821F48021116043F60C0165
:100BF000C4F2020108604EF60851CEF200014FF037
:100C0000006008607047000080B582B01020C4F218
:100C100000000068C007A8B3FFE700F019FF014615
:100C200040F26800C2F2000001900180008800F0EC
:100C3000F3FD0198017840F26C00C2F200000368F5
:100C400040F27002C2F20002D154006843F69621CD
:100C5000884208DCFFE740F26C01C2F2000108683C
:100C60000130086006E040F26C01C2F20001002091
:100C70000860FFE71021C4F20001086820F00100BD
:100C80000860FFE702B080BD81B08DED000A43F639
:100C90002031C2F2000100200860FFE743F6203057
:100CA000C2F2000090ED000AB8EE400A9DED001A75
:100CB000B4EE410AF1EE10FA01DAFFE7EEE701B017
:100CC0007047000040F21040C4F200000068C00706
:100CD00080B1FFE740F21041C4F20001086820F043
:100CE0000100086043F62031C2F2000108680130BB
:100CF0000860FFE77047000080B540F61000C4F2BE
:100D000000000068C00788B1FFE742F22600C0F685
:100D1000000000F0D5F8FFF7D7FD40F61001C4F24F
:100D20000001086820F001000860FFE780BD0000B6
:100D300081B08DF803009DF80300472818D1FFE724
:100D400040F21440C4F202000068C00740B1FFE75F
:100D500040F21841C4F202014FF48030086006E00E
:100D600040F21841C4F2020101200860FFE73EE0B2
:100D70009DF8030052281AD1FFE740F21440C4F254
:100D8000020000684004002808D5FFE740F218413F
:100D9000C4F202014FF08040086007E040F21841C1
:100DA000C4F202014FF480400860FFE71EE09DF8A6
:100DB0000300422819D1FFE740F21440C4F20200B8
:100DC00000680006002808D5FFE740F21841C4F289
:100DD00002014FF40000086006E040F21841C4F23E
:100DE000020180200860FFE7FFE7FFE7FFE701B0AF
:100DF0007047000080B582B044F60000C4F20000E5
:100E000000688006002841D5FFE744F60400C4F2DC
:100E1000000000688DF807009DF807000D2805D038
:100E2000FFE79DF807000A2813D1FFE743F6883152
:100E3000C2F200010B7843F62432C2F20002002015
:100E4000D05443F61D33C2F2000301221A70087019
:100E500017E043F68830C2F20000007862280FDC09
:100E6000FFE79DF8070043F68833C2F200031A78C3
:100E7000511C197043F62431C2F200018854FFE777
:100E8000FFE79DF8070000F003F8FFE702B080BD20
:100E900081B08DF80300FFE744F60000C4F20000C3
:100EA00000684006002801D4FFE7F5E79DF803003D
:100EB00044F60401C4F20001086001B0704700006C
:100EC00080B582B00190002000900D20FFF7E0FF78
:100ED000FFE701980099405C40B1FFE70198009955
:100EE0004A1C0092405CFFF7D3FFF2E70A20FFF7AD
:100EF000CFFF0D20FFF7CCFF02B080BD81B040F6E0
:100F00000041C4F2020108684FF6FF729043086086
:100F100040F61841C4F202014FF4805008604FF0CF
:100F20000060086001200090FFE7009898B1FFE79B
:100F300040F61841C4F202014FF40050086040F638
:100F40001040C4F20200006800F0800000904FF0F2
:100F500000500860E9E740F60041C4F20201086869
:100F600045F255521043086001B0704781B08DF8CA
:100F700003009DF9030000280ED4FFE79DF903103C
:100F800001F01F02012090404A094EF20011CEF2FA
:100F9000000141F82200FFE701B0704781B08DF8F1
:100FA00003009DF9030000280ED4FFE79DF903100C
:100FB00001F01F02012090404A094EF20011CEF2CA
:100FC000000141F82200FFE701B0704780B541F60B
:100FD000B970C0F60000FFF773FF80BD80B582B026
:100FE0008DF80700FFF78AFF40F61841C4F20201AE
:100FF0004FF0006008604FF0805008609DF80700D7
:1010000000F058FDFFF7D0FB02B080BD85B0039023
:101010000291FFE7039801780020019039B1FFE7C2
:1010200002980078002818BF01200190FFE701987E
:10103000C00788B1FFE703980078029909788842D1
:1010400003D0FFE70020049018E0039801300390DC
:10105000029801300290DDE70398017800200090AB
:1010600039B9FFE702980078B0FA80F040090090A3
:10107000FFE7009800F001000490FFE7049805B036
:101080007047000082B0ADF8060041F21401C4F2CE
:101090000201086847F2FC3290430860BDF8060080
:1010A00040F2555188421FDCFFE7BDF8060044F2CC
:1010B0006001C0F27F11A0FB01108DF8050041F224
:1010C0001401C4F20201086840F4805008609DF8E1
:1010D0000520012000FA02F26FF0030000EB82020B
:1010E0000868104308604FE0BDF8060040F6AA21EA
:1010F000884224DCFFE7BDF80600A0F2565142F614
:10110000E970CBF6A07050FB0111C80900EBD1705B
:101110008DF8040041F21401C4F20201086840F4A1
:10112000005008609DF80420012000FA02F26FF0E0
:10113000030000EB820208681043086023E0BDF85A
:101140000600A0F6AB2142F6E970CBF6A07050FB8A
:101150000111C80900EBD1708DF8030041F21401B0
:10116000C4F20201086840F4804008609DF8032042
:10117000012000FA02F26FF0030000EB820208681F
:1011800010430860FFE7FFE702B0704781B08DF8B9
:1011900003008DF8021041F21801C4F202014FF071
:1011A000FE7008609DF80300022807D1FFE741F2B6
:1011B0001801C4F20201F820086000E0FFE79DF882
:1011C000020001280BD1FFE741F21801C4F202012D
:1011D0004FF4806008604FF00060086010E09DF8F8
:1011E000020002280BD1FFE741F21801C4F202010C
:1011F0004FF4006008604FF080600860FFE7FFE791
:1012000001B0704780B5ADF56B4DAAB00DF1A40EDD
:101210000EF56B400290FFF7D9FE00F09FF9FFF743
:10122000D9F8FFF717FB0A20FFF774FA42F22600FD
:10123000C0F60000FFF744FE00F0CCF88020FFF776
:10124000CDFE01200190FFF7C9FE00F00BF900F080
:1012500093F84FF47A70FFF7D9F9FFF711FA029873
:1012600000230393036042F24500C0F6000008210A
:101270001A4600F02FFC9FED3F0A8DED000AFFF7A4
:1012800003FD0198FFF7AAFE0199039B42F2430078
:10129000C0F600001A4600F01DFC9DED000AFFF7A5
:1012A000F3FC0198FFF79AFE0199039B42F241007B
:1012B000C0F600001A4600F00DFC9DED000AFFF795
:1012C000E3FC0198FFF78AFE0199039B42F23F007D
:1012D000C0F600001A4600F0FDFB9DED000AFFF786
:1012E000D3FC0198FFF77AFE0199039B42F23D007F
:1012F000C0F600001A4600F0EDFB9DED000AFFF776
:10130000C3FC0198FFF76AFE0199039B42F23B0080
:10131000C0F600001A4600F0DDFB9DED000AFFF765
:10132000B3FC0198FFF75AFE029903980860FFE7A3
:101330000298006843F69621884217DCFFE702987E
:10134000026840F27001C2F20001895C00EE101ADE
:10135000B8EE400A016851A800EB810080ED000A58
:10136000FFE70299086801300860E1E70DF56B4D71
:101370002AB080BD00401C4543F63001C4F2020192
:10138000086840F00200086040F20041C4F2020127
:10139000086820F040600860086840F080600860DD
:1013A00040F20441C4F20201086820F400500860D1
:1013B00040F20841C4F20201086820F04060086071
:1013C00040F20C41C4F20201086820F0406008605D
:1013D0007047000080B582B0FFF746FB43F630014E
:1013E000C4F20201086840F00800086040F60041BD
:1013F000C4F2020108680022CFF23F0210400860E8
:10140000086845F25552C0F240521043086040F659
:101410001841C4F202014FF0006008604FF08050A4
:1014200008604FF0005008604AF2280000F0B6F95A
:101430003820FFF7D3FD3C20019000F0AFF90C20DD
:10144000FFF7CCFD019800F0A9F90120FFF7C6FDD8
:101450004FF4FA6000F0A2F90620FFF7BFFD02B0DA
:1014600080BD000043F63001C4F20201086840F07C
:10147000010008600021C4F20201086840F4404005
:1014800008600C21C4F20201086820F440400860A2
:1014900043F64401C4F20201086840F48070086019
:1014A00042F20801C4F20101086820F0010008605E
:1014B00042F20402C4F20102106820F04070106091
:1014C000086820F00200086042F21002C4F2010233
:1014D000106820F460001060106840F4C0001060D4
:1014E00042F23402C4F20102106820F01F001060C2
:1014F000106840F007001060086840F001000860C4
:101500007047000043F63001C4F20201086840F061
:10151000010008600021C4F20201086840F00300E5
:10152000086043F64401C4F20201086840F4807088
:10153000086042F23401C4F201010020086042F266
:101540002C01C4F20101086042F20801C4F2010159
:10155000086840F0010008607047000043F6300161
:10156000C4F20201086840F0010008600021C4F2E2
:101570000201086840F440700860086840F4406068
:10158000086043F64001C4F20201086840F00050D0
:10159000086047F20041C4F20001086840F0010011
:1015A0000860086840F48030086047F20841C4F2DF
:1015B00000010020086047F21441C4F200010860F5
:1015C0007047000043F64001C4F20201086840F091
:1015D0000050086047F20041C4F20001086840F47E
:1015E000803008607047000043F63001C4F2020109
:1015F000086840F01000086041F20001C4F20201E6
:1016000008686FF313100860086845F25052C0F282
:10161000050210430860086820F07C5008600868E4
:1016200040F0A8500860086820F0030008600868CF
:1016300040F00100086041F21801C4F202014FF4C9
:10164000803008607047000080B582B043F63001FA
:10165000C4F20201086840F00800086040F600414A
:10166000C4F20201086820F470200860086840F4A1
:101670002020086001208DF807008DF806009DF8F5
:1016800007C00820A0EBCC0189000F2202FA01FE5E
:1016900040F62041C4F2020151F82C3023EA0E0337
:1016A00041F82C309DF807C0A0EBCC008300072048
:1016B00000FA03FE51F82C3043EA0E0341F82C30B7
:1016C0009DF806C00923A3EBCC0E4FEA8E0E02FA5A
:1016D0000EFE51F82C2022EA0E0241F82C209DF833
:1016E0000620A3EBC2039B0000FA03F351F822008B
:1016F000184341F8220043F64001C4F20201086891
:1017000040F48020086044F60C01C4F2000100910E
:10171000086842F20C0210430860086840F020009C
:1017200008602720FFF722FC009944F61002C4F25B
:101730000002106820F440501060086820F4004057
:101740000860086820F480500860086820F4806011
:101750000860086820F40070086040F20000C2F2DF
:10176000000000684BF2C531C9F2A211A0FB0110C4
:10177000400C44F60801C4F200010860FFF726FCA3
:1017800042F21C00C0F60000FFF79AFB41F6C17060
:10179000C0F60000FFF794FB02B080BD82B001905C
:1017A000FFE70198411E0191F0B1FFE700208DF89D
:1017B0000300FFE79DF8030040F20001C2F20001C0
:1017C00009684DF68362C4F21B32A1FB0221B0EB23
:1017D000115F08D2FFE700BFFFE79DF8030001306B
:1017E0008DF80300E6E7DCE702B0704780B582B011
:1017F00000200190FFF738F9FFF734FEFEF7ECFF09
:101800004720FFF795FAFEF7BFFDFFF71DFFFFE743
:1018100000F00EF800BFFBE781B0ADF80200BDF8A4
:10182000020047F20841C4F20001086001B07047AD
:1018300080B582B043F61D30C2F200000078002867
:1018400000F0D180FFE7FFF7C1FB41F6AC70C0F6B6
:101850000000FFF735FB43F62430C2F20000019090
:10186000FFF72EFB41F6AA70C0F60000FFF728FB39
:10187000019842F2DA01C0F60001FFF7C7FB48B158
:10188000FFE7FFF7A3FB42F29700C0F60000FFF767
:1018900017FB9CE043F62430C2F2000042F2D6016E
:1018A000C0F60001FFF7B2FB48B1FFE7FFF78EFB80
:1018B00042F24E00C0F60000FFF702FB86E043F65E
:1018C0002430C2F2000042F2CB01C0F60001FFF763
:1018D0009DFB18B1FFE7FFF795FC76E043F6243057
:1018E000C2F2000042F2DD01C0F60001FFF78EFBFC
:1018F00070B1FFE7FFF76AFBFFF730FE42F2B3007B
:10190000C0F60000FFF7DCFAFFE7FFF799F8FCE705
:1019100043F62430C2F2000042F2BF01C0F60001DB
:10192000FFF774FB68B1FFE7FFF750FB42F26C0072
:10193000C0F60000FFF7C4FAFEF7FCFC00F0AAF8BE
:1019400041E043F62430C2F2000042F20E01C0F63C
:101950000001FFF75BFB48B1FFE7FFF737FB42F2FF
:101960007D00C0F60000FFF7ABFA2BE043F6243011
:10197000C2F2000042F2BB01C0F60001FFF746FBD5
:10198000C0B1FFE7FFF722FB42F22E00C0F60000D5
:10199000FFF796FAFFF7E2FDFEF71CFDFEF75AFF90
:1019A0000A20FEF7B7FE42F22600C0F60000FFF75D
:1019B00087FA06E042F25C00C0F60000FFF780FA0A
:1019C000FFE7FFE7FFE7FFE7FFE7FFE7FFE743F694
:1019D0001D31C2F200010020087043F62431C2F22A
:1019E00000010870FFE702B080BD000080B582B042
:1019F0008DF80700FFF782FA40F61841C4F20201A1
:101A00004FF4006008604FF0805008609DF80700B8
:101A100000F050F8FEF7C8FE02B080BD42F20801A7
:101A2000C4F20101086840F080400860FFE742F21C
:101A30000000C4F2010000688007002801D4FFE71D
:101A4000F5E742F24C00C4F20100006880B2704732
:101A500042F20001C4F20101086820F002000860AF
:101A600042F20801C4F20101086840F080400860B9
:101A7000FFE742F20000C4F201000068800700287E
:101A800001D4FFE7F5E742F24C00C4F20100006820
:101A900080B2704780B582B0FEF74CFCFFE70220B1
:101AA00001900121FFF772FB01990846FFF76EFBD9
:101AB000F5E7000081B08DF8030040F61841C4F24C
:101AC00002014FF47F0008609DF80300086001B038
:101AD0007047000080B588B0079006910592049386
:101AE000FFF70CFAFEF75AFE0598012810D1FFE720
:101AF00000200390FFE70398272808DCFFE7142065
:101B0000FFF76CFAFFE7039801300390F3E7FFE774
:101B100000200290FFE702980499884208DAFFE764
:101B20001420FFF75BFAFFE7029801300290F2E71A
:101B300000200190FFE70198069988420ADAFFE742
:101B400007980199405CFFF751FFFFE701980130CA
:101B50000190F0E708B080BD21F0004201F00043A1
:101B6000A2F16052B2F5801F28BFD2F17F6C0BD971
:101B70005FEA001C43EAC20242EB507018BF704794
:101B800028BF20F001007047B2F5801FBCBF184687
:101B900070474FEA410C1CF5001F02D2084600F0C6
:101BA000E1B970B500F07DF900000089FFF7F6BFDC
:101BB0004FF00040A0F58000704700002DE9C041C3
:101BC00030B4DFF8A8C23CEA111418BF3CEA131481
:101BD00000F0F0801CEA111481EA030544EAD57490
:101BE00018BF1CEA131500F0CB80A4EB050404F128
:101BF0007F7404F500344FF0004545EAC12145EA01
:101C0000C32341EA505143EA52534FEAC0204FEAFE
:101C1000C222994208BF904200F0A0804FEA1365AB
:101C20000FF24816765D4FEA134506FB05F7C7F13C
:101C3000807706FB07F74FEAD737A7FB03687642A2
:101C4000A7FB06CEC8F5803838BFA8F1010807FB0E
:101C500008E6A6FB028C4FF0000EE6FB03CED8F19F
:101C600000086FEA0C0C5CF1000C6FEA0E0E4EF1EE
:101C7000004EA6FB0C584FF00007E6FB0E87A1FBB9
:101C800008C6A0FB07CE16EB0E064FF0000545F187
:101C90000005E1FB076515F1E04E7EBFA4F5803439
:101CA0005FEA46066D4116F1800745F100054FEAEF
:101CB000172747EA05674FEA15254FEA0666A6F19A
:101CC000DE46B6F1805F20D9384605EBC47124F0BA
:101CD000010C01EB0C11BCF1FE6F02D8F0BCBDE8A9
:101CE000008124425CBF01F5801E9EEAC47F02D4BD
:101CF000F0BCBDE80081244200F13980A1F1C0416F
:101D0000F0BCBDE8004100F01AB94FEAD02040EA2B
:101D100041504FEAD1214FEAD22242EA43524FEAE0
:101D2000D323A7FB028607FB036605FB02661EEAB8
:101D30000E0F58BFA6EB0056B6EB00564FEA520EF8
:101D40004EEAC37E18EB0E0E56EB530EBCD518EBC5
:101D500002085E417F1C55F10005B5E74FF4801580
:101D60004FF000074FF000064FF00008ACE701F11C
:101D7000C04101F000414FF00000F0BCBDE800811F
:101D80000CEA131511EA0C1F00D00CE013EA0C1F2B
:101D900000F025804FF0000081EA030101F00041CE
:101DA000F0BCBDE80081F0BCBDE8004181EA030160
:101DB00000F0C5B8F0BCBDE8004170B500F071F8A6
:101DC000097EFC3E00F007B84FF0000081EA0301F5
:101DD00001F00041704781EA030100F0B0B8F0BCA7
:101DE000BDE8004122494FF000007047FFFDFBF9BC
:101DF000F7F5F4F2F0EEEDEBE9E8E6E4E3E1E0DE3E
:101E0000DDDBDAD8D7D5D4D3D1D0CFCDCCCBCAC8AF
:101E1000C7C6C5C4C2C1C0BFBEBDBCBBBAB9B8B7D6
:101E2000B6B5B4B3B2B1B0AFAEADACABAAA9A8A8C9
:101E3000A7A6A5A4A3A3A2A1A09F9F9E9D9C9C9B97
:101E40009A99999897979695959493939291919042
:101E50008F8F8E8E8D8C8C8B8B8A898988888787D3
:101E60008685858484838382828181800000FF0748
:101E70000000F87F10F0004248BF4042B0FA80F303
:101E800010FA03F10AD0C3F11D0303F5806302EBDE
:101E900003524FEA415002EBD12170474FF000004E
:101EA00070470EF1020E2EF0030E5EF8046B364200
:101EB00005D4012A43EB030515F5001F12D80128AC
:101EC00041EB010C1CF5001F0CD80ED14FEAD17C60
:101ED0000CEB4C0C0CF1020C15F5001F08BF4CEB81
:101EE000D37C04E04FF0080C01E04FEAD37C0CEB0C
:101EF0004C0526FA05F606F00706B6F1040C06D2E4
:101F00000EEB860CBDE870404CF0010C6047DFE83A
:101F10000CF0090B02024FF00041A1F500214FF037
:101F2000000070BD19461046012851EB010418BF8E
:101F3000D4F5001484BF002001F0004170BD0808F2
:101F4000A0F500114FEA31017047F1EE100A4FF68B
:101F5000FF71C0F2C03120EA010040F04070E1EEB4
:101F6000100A7047FF2141EAD050C00570470000B9
:101F70000000000000000102030406070809496E82
:101F800076616C696420696E7075742120506C658F
:101F90006173652074797065206578697420746F49
:101FA000206C656176652E0D0A000D000D0A5265E4
:101FB0006365697665643A20001B5B324A1B5B48A7
:101FC000000D0A201B5B33326D1B5B346D1B5B34D1
:101FD000306D20456E746572206D6F6465206F6E84
:101FE0002C206F66662C20686561727420726174A3
:101FF000652C20726762206261722C2074656D709E
:10200000657261747572652C206163632C206D6F3D
:102010006E69746F7220636865636B001B5B306D63
:102020000065786974001B5B324A1B5B48204143A2
:1020300043454C45524154494F4E00310032003324
:102040000034003500426567696E20696E00547582
:10205000726E696E67204F46460D0A00496E7661C2
:102060006C696420696E7075740D0A0054454D509A
:1020700045524154555245202832322900434845A3
:10208000434B494E472E2E2E2E2E2E2E2E2E2E2EEA
:102090002E2E2E2E2E2E000D0A1B5B33306D1B5B59
:1020A000366D1B5B34326D205475726E696E67201D
:1020B0004F4E005247422042415200616363007418
:1020C000656D7065726174757265006865617274C2
:1020D0002072617465006F6666006F6E00726762E1
:1020E000206261720000000008210008000000204A
:1020F00004000000100200080C2100080800002065
:0C21000088410000300200080024F400B8
:040000050800027974
:00000001FF
