:020000040800F2
:10000000782B0120F902000801030008030300080F
:1000100005030008070300080903000800000000AA
:100020000000000000000000000000000B030008BA
:100030000D030008000000000F0300081103000872
:100040001303000813030008130300081303000838
:100050001303000813030008130300081303000828
:100060001303000813030008130300081303000818
:100070001303000813030008130300081303000808
:1000800013030008130300081303000813030008F8
:1000900013030008130300081303000813030008E8
:1000A00013030008130300081303000813030008D8
:1000B000E11B00089D1C000813030008130300083F
:1000C00013030008130300081303000813030008B8
:1000D00013030008130300081303000813030008A8
:1000E0001303000813030008130300081303000898
:1000F0001303000813030008130300081303000888
:100100001303000813030008130300081303000877
:100110001303000813030008130300081303000867
:100120001303000813030008130300081303000857
:100130001303000813030008130300081303000847
:100140001303000813030008130300081303000837
:100150001303000813030008130300081303000827
:100160001303000813030008130300081303000817
:100170001303000813030008130300080000000025
:1001800013030008130300081303000813030008F7
:1001900013030008130300081303000813030008E7
:1001A00013030008130300081303000800F002F80B
:1001B00000F092F80AA090E8000C82448344AAF16F
:1001C0000107DA4501D100F087F8AFF2090EBAE86D
:1001D0000F0013F0010F18BFFB1A43F0010318477B
:1001E000C0400000E0400000103A24BF78C878C149
:1001F000FAD8520724BF30C830C144BF04680C602D
:10020000704700000023002400250026103A28BF74
:1002100078C1FBD8520728BF30C148BF0B60704778
:100220006E2900F08B81702900F0CD82662903F0E1
:100230005E87652903F05B87672903F0588761298A
:1002400003F0578703681B0A28BF41F08001692922
:1002500000F03881642900F03581752900F0328181
:100260006F2900F05B82782900F09982E92900F07B
:10027000F581E42900F0F281F52900F0EF81EF2902
:1002800000F05882F82900F098820368DB0928BF43
:1002900041F08001632900F09D87732900F0A28757
:1002A000E32900F0AD87F32900F0B2870020704702
:1002B0001FB503F00FFF01F005F804000020002136
:1002C00003F0ECF9401C60600020002103F0D0F93D
:1002D000E0601FBD10B510BD00F0C6FF1146FFF76E
:1002E000E7FF01F02BFF01F0A3F803B4FFF7F2FFE3
:1002F00003BC01F0A7F800000948804709480047FF
:10030000FEE7FEE7FEE7FEE7FEE7FEE7FEE7FEE7C5
:10031000FEE7FEE704480549054A064B7047000022
:10032000711B0008AD01000878250120782B012001
:1003300078270120782701200FB41CB5084B06AAA6
:100340007B4469460090059800F011F904460020AE
:10035000694600F01FF920461CBC5DF814FB000044
:10036000510200000000000030B44FF0013C50F892
:10037000042B51F8043BCCFA52F4D51A20D1FCB925
:1003800050F8042B51F8043BCCFA52F4D51A17D18B
:10039000B4B950F8042B51F8043BCCFA52F4D51AF6
:1003A0000ED16CB950F8042B51F8043BCCFA52F43E
:1003B000D51A05D1002CDAD030BC4FF000007047C0
:1003C00029BAB1FA81F111F01801D1F1200084406D
:1003D000F2D1CA40CB4012F0FF0213F0FF0330BC51
:1003E000D01A704770477047704710B500F0BAFADE
:1003F000006810BD10B5044600F0B4FA046010BDEA
:1004000070B5044685690068C10601D5302600E054
:100410002026C00707D070BDD4E90121304690479F
:10042000206A401C20626D1EF6D570BD70B5044672
:1004300085690078C00707D170BDD4E9012120206B
:100440009047206A401C20626D1EF6D570BD096879
:100450004A0501D540B27047C905FCD500B27047C6
:1004600009684A0501D5C0B27047C905FCD580B2FC
:10047000704770B50C460546012A05D028788006DD
:1004800000D5EA69002302E0012305E05B1C9342EA
:1004900002D2E05C0028F9D1A869E618C01AA86168
:1004A000286A184428622846FFF7AAFF04E0D5E925
:1004B000012114F8010B9047B442F8D32846FFF706
:1004C000B5FF70BD2DE9F04106460024106875297E
:1004D000314616A510D0FFF7BAFF002802DA4042D5
:1004E00013A507E031688A0701D512A502E0490784
:1004F00004D511A5012401E0FFF7B2FF00210A2273
:1005000006F1240709E0B0FBF2FCB0FBF2F302FBBA
:100510001C00303078541846491C0028F3D123467B
:100520002A463046BDE8F04100F065BA0000000000
:100530002D0000002B000000200000001168026860
:10054000006A530501D508700AE0D30501D508807B
:1005500006E0130603D5C217C1E9000200E00860F7
:100560000120704701694A1C02610878704700B594
:100570008FB0CDE901310021059105497944CDE9DC
:1005800003101146684600F029F90FB000BD0000C5
:10059000E5FFFFFF0A6802F8010B0A6070470000E0
:1005A0002DE9FF5F15468A460446DFF8AC80F84423
:1005B0000027D8E900103E46CDE9001010E03AF8D7
:1005C00016106A4602A800F027FE411C07D02178C9
:1005D000890603D5E269391891420DD80744761C83
:1005E0002078800602D5E069B84205DDAE42E6DB40
:1005F0003AF816000028E2D1A069C01BA06120468D
:10060000FFF7FEFED8E90010CDE90010002017E04A
:100610003AF818106A4602A800F0FEFDB0F1FF3F5C
:1006200081460BD000250DF1080B05E0D4E901212E
:100630001BF8050090476D1C4D45F7D308F10100EC
:10064000B0428046E4DB206A384420622046FFF74F
:10065000EDFEBDE8FF9F00007E3B00002DE9F0416C
:100660008046D21D22F007020025D2E90002F529BA
:1006700015A614D0011E72F1000106DA0023D0EB9A
:10068000030063EB020211A608E0D8F800108B0704
:1006900001D50FA602E0490701D50EA60125114696
:1006A000002408F1240704E000F060F930323A55E4
:1006B000641C50EA0102F7D12B46324621464046DF
:1006C000BDE8F04100F097B9000000002D000000E7
:1006D0002B0000002000000030B4002100F12404B1
:1006E00008E002F00705D208303542EA4372DB0821
:1006F0006554491C52EA0305F3D10468002310A293
:10070000250708D504F020040C4304D0C469012354
:100710000CA2641EC46130BC00F06DB910B5044673
:1007200021461068FFF79CFE02462046BDE81040B7
:100730000023D1E7D21D22F00701D1E90023CBE746
:100740000000000030000000F0B40D4601880905EB
:1007500002D5214C7C4402E01F4C7C440E34002125
:1007600000F1240608E002F00F071209E75D42EAF3
:1007700003721B097754491C52EA0307F3D102782C
:100780000023120704D5702D06D009B102231134BD
:100790002246F0BC00F02FB901231034F8E770B501
:1007A00004460D4621461068FFF75AFE02462946C8
:1007B0002046BDE870400023C6E7D21D22F00703A3
:1007C000D3E90023C0E70368126843F02003036005
:1007D0000823C3610023B7E7E03900002DE9F05F8B
:1007E000894604464FF0000ADFF874B1FB44C0F8B4
:1007F00020A02046E1688847002874D0252806D02C
:10080000D4E901219047206A401C2062F1E70026CC
:100810005F462046E16888472028054607DB312DE2
:1008200005D2781910F8200C08B10643F1E7B0079B
:1008300001D526F00406C4F81CA00027C4F818A0AF
:100840002A2D09D0284602F003FF38B304EB8708AD
:10085000303DC8F8185019E059F8041B204604EB45
:1008600087029161E1688847012F054618D1E06948
:10087000002820DA26F020061DE0D8F8180000EB4A
:10088000800005EB40003038C8F818002046E168C9
:100890008847054602F0DCFE0028EED1012F0AD081
:1008A0002E2D08D12046E16888477F1C0546022F7F
:1008B00046F02006C4DBA069002803DA404246F077
:1008C0000106A061F00701D026F010066C2D0BD0B8
:1008D000682D09D04C2D39D06A2D35D0742D35D0E6
:1008E0007A2D33D016E038E0E1682F46204688475D
:1008F000B842054609D16C2F26D04FF48060E168DC
:10090000064320468847054604E06C2F1AD04FF472
:10091000807006430DB3A5F14100192802D8203597
:1009200046F400664A462946204626604E46FFF7B2
:1009300077FC80B101280BD0F61D26F0070000F1EE
:10094000080956E74020E4E78020D8E70020D6E7F2
:1009500006F104094DE7284652E7206ABDE8F09FFA
:1009600070390000004870470800002030B5B0F131
:100970000A0271F100034FEA900E4EEA817EB0EB5D
:100980000E0061EB91014FEA101E4EEA017E10EB62
:100990000E0041EB11114FEA102E4EEA016E10EBE2
:1009A0000E0041EB11214FEA104E4EEA014E10EBC2
:1009B0000E0041EB1141401841F100014FEAD00017
:1009C00040EA41704FEAD1014FEA810444EA907451
:1009D00010EB800544EB01046D1944EB0404521B39
:1009E000A3414FF0000348BF0A3200D530BD401C80
:1009F00041F1000130BD2DE9F0470D469946924680
:100A0000044600F124080168880604D5E06921F055
:100A10001001216000E00120A84201DD471B00E039
:100A20000027A1697A1902EB0900081AA061207851
:100A3000C00602D42046FFF7E3FC002608E0D4E914
:100A400001211AF806009047206A401C761C20629B
:100A50004E45F4DB2078C0060AD52046FFF7D0FCCF
:100A600006E0D4E9012130209047206A401C206232
:100A7000381EA7F10107F4DC07E0D4E9012118F8DA
:100A800005009047206A401C2062281EA5F1010540
:100A9000F3DC2046FFF7CAFC2078000602D50220CE
:100AA000BDE8F0870120FBE72DE9FF4F0C461E460D
:100AB0004FF0FF378BB0D2E90001DDF860800A907B
:100AC0008A46C1F30A5505B93D46002108464FF054
:100AD0000000BAF1000F00F4400005DA00EB8000DE
:100AE0004FF4400101EA50004FEA9059B9F1010F6B
:100AF00000DDB9460A9850EA4A000ED044F610507C
:100B0000A5F2FF3545432F14B8F1000F1ED07542F2
:100B1000291E1EDDC9F100021CE0B8F1010F4FF0E3
:100B2000000001D0302103E0F24305E02154401CD5
:100B3000B042FBDB30460022002121540B99C1F862
:100B40000880C1E900200FB0BDE8F08FBD1B6D1C0F
:100B5000DEE74A4600DA694206A800F0F7FB06AB7A
:100B600093E8070003AB83E8070050460A9901F0B9
:100B7000D5FD8DE80700A0F500501F3800900398C0
:100B8000002D0ADD42F21F014A460844002303A952
:100B90000390684602F03EF809E0A0F500504A468E
:100BA0001F38002303A90390684602F048F88DE837
:100BB00007000004000C03D04FF0FF30410800E0B4
:100BC0001046B8F1000F03D00022009215461EE037
:100BD000751E05D4FFF7CAFE303262556D1EF9D579
:100BE000B3460122084302D000227F1C04E0207893
:100BF000302801D100227F1E002A099784D01DE0F1
:100C0000112D07DAFFF7B2FE303262556D1C50EA43
:100C10000102F5D1084302D00098C8B10EE00021CE
:100C2000681E05E0235C625C63542254401E491C2C
:100C30008142F7DBAB46A81B401E0990002004F858
:100C40000B000B98099AC0F80880C0E9002B7AE7DE
:100C500011264FF0000857E72DE9F04F884604466B
:100C6000D21D22F0070191B0D1E90001CDE90A01BE
:100C700002F01CF902460B98C00F01D02D2007E0AE
:100C80002068810701D52B2002E0202101EAC00065
:100C9000032A099001D0072A05DB03464146204676
:100CA00000F014FB0BE12078800601D5E06900E03C
:100CB0000620B8F1650F814606D0B8F1660F18D04E
:100CC000B8F1670F70D131E00020B9F1110F009039
:100CD00001DB112301E009F101030AAA01A90CA813
:100CE000FFF7E2FEDDE90C70002609F101058346FD
:100CF00047E001204B4600904FF000470AAA01A9A7
:100D00000CA8FFF7D1FEDDE90DB00C995D46002679
:100D100010B909F101000D18B9EB050003D4C0F1B9
:100D2000FF3609F10105A5EB09002BE0B9F1010F30
:100D300001DA4FF001090020B9F1110F0090484687
:100D400001DD112300E003460AAA01A90CA8FFF760
:100D5000ABFEDDE90C704D46002683462078000787
:100D60000AD4AB4500DA5D4601A8012D04DD411926
:100D700011F8011C302907D04F4502DA17F1040F92
:100D800004DA012082460FE06D1EEEE7002F02DC40
:100D9000ED1B3E4403E0781CA84200DD7D1CB81B1F
:100DA00000F1010A4FF000472078000703D4AA455C
:100DB00001DB4FF0FF3A0021B7F1004F0DF143087E
:100DC0008DF8431024D002202B23002F01DA7F421C
:100DD0002D230A21021EA0F1010000DC5FB197FB68
:100DE000F1FC97FBF1F201FB1C7C17460CF1300C77
:100DF00008F801CDEEE7A8F101000370218809058C
:100E000001D5452100E06521A0F1010800F8011C91
:100E100009980FA9A1EB0807FF1D00B10120411996
:100E200001EBEA70A1693844081A401EA0612078DD
:100E3000C00602D42046FFF7E3FA099828B1D4E9A6
:100E400001219047206A401C20622078C00622D5EC
:100E50002046FFF7D5FA1EE0002E04DBB34502DD85
:100E600001A8805D00E03020D4E901219047206A8C
:100E7000401C2062761CAAF101005FEA000A0AD138
:100E800000F020FAC0680168405CD4E90121904775
:100E9000206A401C2062281EA5F10105DCDC07E069
:100EA000D4E9012118F8010B9047206A401C206208
:100EB000381EA7F10107F3DC2046FFF7B7FA03203D
:100EC00011B041E62DE9F04F04460D46D21D22F047
:100ED000070089B0D0E900974846394601F0E6FF9F
:100EE0000246F80F01D02D2307E02068810701D5C5
:100EF0002B2302E0202101EAC0038DF820300BB142
:100F0000012000E00020032A824601D0072A04DBEA
:100F10002946204600F0DAF93FE12078800601D426
:100F20000D2500E0E569C7F30A560D2D49DA0021C9
:100F30004FEA175B08464FF00000002F00F4400016
:100F400007DA00EB80004FF4400100EBD07001EABB
:100F500060008115012901DD4FF0FF3100224FEAC9
:100F6000850CBCF1180F06D31346ACF118004FF0F6
:100F70008052C24003E04FF4801323FA0CF30CF1CB
:100F80000C0CBCF1200F04D3ACF1200C09FA0CF0CE
:100F900001E007FA0CF000294FF0004801DD18B914
:100FA0000FE00ED140450CD319EB02095F4121B986
:100FB000404502D19F4329EA0209BBEB175F00D0ED
:100FC000761C2088000502D57B48784402E07A48E8
:100FD0007844193808AA302302F80A30037C0AF151
:100FE0000101002E0AF1020A53546A4602DC4FF056
:100FF000300101E04FF031014FF001088DF8001091
:1010000002D0A6F2FF3603E059EA470100D06B4E4A
:10101000002D02DC2178090704D54FF002082E21AB
:101020008DF80110C44600210BE0C7F303433F01D4
:10103000C35C491C6D1E02F80830052908F101083F
:1010400001DA002DF1DC00210CE000EB1973491CE2
:101050001B786D1E082902F808304FEA091908F1BB
:10106000010801DA002DF0DC21688B0602D516E0BC
:10107000A8F10108E04505DD02EB080313F8013C87
:10108000302BF5D0B8F1000F09DD02EB080313F89F
:10109000013C2E2B03D1090701D4A8F10108002D32
:1010A00005DD3E2102F808106D1E08F10108407CA4
:1010B000002E02F8080008F1010804DA2D2076421B
:1010C00002F8080002E02B2002F808000A214FF481
:1010D0007A70864208F101080BDB96FBF0F330339F
:1010E00002F8083096FBF0F308F1010800FB1366E4
:1010F00001E0642E0CDB642096FBF0F3303302F841
:10110000083096FBF0F308F1010800FB136601E0DC
:101110000A2E06DB96FBF1F0303002F8080008F1E9
:10112000010896FBF1F001FB1060303002F8080076
:10113000A16908F1010808EB050202EB0A00081A90
:10114000A0612078C00602D42046FFF759F9216A31
:1011500008AE01EB0A00206204E0D4E9012116F890
:10116000010B9047BAF1010AF7D22078C00602D5E8
:101170002046FFF745F96E4609E016F8010B3E28B8
:101180000FD0D4E901219047206A401C2062B8F1B9
:101190000108F2D22046FFF749F909B00320BDE863
:1011A000F08F206A2844206203E0D4E90121302036
:1011B00090476D1EEBD3F8E7C531000002FCFFFF3E
:1011C00010B5436913B1AFF3008001E0FFF751F9A7
:1011D000012010BD127800F124010A7000224A702B
:1011E0000122EDE711684FF0FF32E9E710B54369DE
:1011F00013B1AFF3008001E0FFF7D2F9012010BD79
:10120000128800F1240182840022C2840122EDE7C9
:1012100011684FF0FF32E9E72DE9F04116460C4620
:10122000054600F047F8036893F80101012807D04C
:10123000FF2C12D8185D80B101202C70BDE8F08120
:10124000D3F807013246214603F20713C718284690
:10125000BC46BDE8F041002360474FF0FF30EDE7AA
:1012600000487047080000207546FFF7F9FFAE46BA
:1012700005006946534620F00700854618B020B5A2
:10128000FFF748F8BDE820404FF000064FF0000798
:101290004FF000084FF0000BAC46ACE8C009ACE8DA
:1012A000C009ACE8C009ACE8C00921F007018D46CF
:1012B0007047000010B500F005F8001D10BD00BF1C
:1012C000DD23000000487047280000202DE9F04190
:1012D0001F46044603260168072A01F4006004DB68
:1012E00008B116A505E016A503E008B115A500E0B4
:1012F00015A521F010002060A069C01EA0610FB1EB
:10130000401EA0612046FFF77BF84FB1D4E90121D0
:1013100038469047206A401C2062C01C206206E0CC
:10132000206AFAE7D4E9012115F8010B9047761EEF
:10133000F8D22046FFF77AF8BDE8F0814E414E0022
:101340006E616E00494E4600696E66002DE9F047F9
:10135000814616468AB0354878440DC88DE80D00A0
:1013600032487844801C03AC0DC884E80D0041F677
:101370009B300844372190FBF1F290FBF1F5A5F189
:10138000800501FB12041B3C02D56442012000E0F1
:101390000020DFF898A080460027FA44AAF1BE0A90
:1013A0000EE0E0070AD03246684607EB470101230A
:1013B0000AEB810101F043FC8DE8070064107F1CFB
:1013C000002CEED1194F7F44AE3F19E0E80715D04D
:1013D00007EB04100DF1180A90E80E008AE80E00E1
:1013E000C068F04201D1981908903246012306A93D
:1013F00003A801F024FC03AB83E807006D10641C14
:10140000002DE3D14FF0010332466946B8F1000FD9
:1014100003A802D001F0FEFB01E001F010FCC9E9D5
:101420000001C9F808200AB0BDE8F087C82E000006
:1014300010B50446AFF300802046BDE81040FEF72B
:1014400054BF000001491820ABBEFEE72600020091
:101450007047000082B00190009143F63001C4F261
:101460000201086840F004000860019908680860FB
:1014700001998868886000984100032000FA01F211
:101480000199C8681043C86002B0704784B0DDF8A5
:1014900010C0039002910192009343F63001C4F210
:1014A0000201086840F04000086041F60001C4F203
:1014B0000201086808600868086008680860086831
:1014C000086041F60801C4F2020108680860086873
:1014D00008600868086008680860029841000320F6
:1014E00000FA01F341F60C01C4F202010A681A4342
:1014F0000A60019A520000FA02F20868104308607C
:1015000000984200022000FA02F30A681A430A60B7
:10151000049A520000FA02F208681043086004B00E
:101520007047000081B08DF803009DF8030045F678
:101530001001C4F200010860FFE745F61400C4F290
:10154000000000688007002801D4FFE7F5E745F6B2
:101550001800C4F20000006801B0704743F6400173
:10156000C4F20201086840F48000086043F63001CC
:10157000C4F20201086840F00200086040F2004135
:10158000C4F20201086840F42000086040F20441FF
:10159000C4F20201086840F44060086040F208416B
:1015A000C4F20201086840F47000086040F20C4187
:1015B000C4F20201086840F4A000086040F224412F
:1015C000C4F20201086840F48840086045F6000152
:1015D000C4F20001086840F400400860086820F484
:1015E0000040086045F60402C4F20002106840F0B2
:1015F0002D00106045F61C02C4F20002E1201060CC
:1016000045F62002C4F200022E201060086840F067
:10161000010008607047000084B08DF80F0002914F
:101620008DF807209DF8070000909DF80F0045F603
:101630001001C4F200010860FFE745F61400C4F28F
:10164000000000688007002801D4FFE7F5E745F6B1
:101650001800C4F200000068FFE70098032820DBB0
:10166000FFE7FFE745F61400C4F2000000684006FB
:10167000002801D4FFE7F5E745F61000C4F20000AA
:10168000006802994A1C0292087045F60001C4F2F3
:101690000001086840F480600860009801380090FC
:1016A000DBE7FFE745F61400C4F2000000684006DF
:1016B000002801D4FFE7F5E745F61000C4F200006A
:1016C000006802994A1C0292087045F60001C4F2B3
:1016D0000001086820F480600860086840F4007029
:1016E0000860FFE745F61400C4F2000000684006F9
:1016F000002801D4FFE7F5E745F61000C4F200002A
:1017000000680299087004B07047000045F60001B7
:10171000C4F20001086840F480600860086840F482
:1017200080700860FFE745F61400C4F2000000680E
:10173000C00708B9FFE7F6E77047000045F600016B
:10174000C4F20001086840F40070086070470000AF
:1017500081B08DF80300FFE745F61400C4F20000E5
:1017600000680006002801D4FFE7F5E79DF80300B4
:1017700045F61001C4F200010860FFE745F61400C9
:10178000C4F2000000684007002801D4FFE7F5E735
:1017900001B0704783B002904FF22440019001984D
:1017A0000299B0FBF1F00138009043F64001C4F219
:1017B0000201086840F0010008600C21C4F2000139
:1017C000086840F0010008602821C4F20001FF20F1
:1017D000086000982C21C4F2000108602421C4F2A2
:1017E0000001002008604EF20011CEF200010868EE
:1017F00040F0805008604FF08041086840F00100E0
:10180000086003B07047000080B584B043F6400123
:10181000C4F20201086840F00200086042F2004091
:10182000C0F2F40003904FF47A7202920398029986
:101830005143B0FBF1F00138019003980199013157
:10184000029A5143B0FBF1F00090019840F2284118
:10185000C4F200010860009840F22C41C4F200017B
:10186000086040F22441C4F200010020086040F208
:101870000C41C4F20001086840F0010008601D201E
:1018800000F05EFA62B640F20041C4F2000108685E
:1018900040F00100086004B080BD000080B5022067
:1018A00000F066FA80BD000080B582B00A2000908A
:1018B00000F01CFC009840F61842C4F202020192AB
:1018C0004FF40051116000F011FC01994FF00050ED
:1018D000086002B080BD000043F63001C4F202018E
:1018E000086840F001000860086840F002000860E5
:1018F0000021C4F20201086840F4807008600868A2
:1019000040F48060086040F20041C4F202010868BF
:1019100040F001000860086840F0805008600868E6
:1019200040F4804008601821C4F202014FF4801096
:1019300008604FF40010086040F21841C4F2020140
:101940004FF4803008604FF0804008604FF4000092
:101950000860704780B584B043F60832C2F20002D6
:101960000292D2207521012300F02EF8029800780F
:10197000682827D1FFE7002000908DF80F009DF820
:101980000F20D22001906B2100F040F80198072130
:101990008DF80F109DF80F20192100F037F80099ED
:1019A00001988DF80F109DF80F201C2100F02EF8E3
:1019B000009901988DF80F109DF80F201B2100F061
:1019C00025F8FFE704B080BD80B584B08DF80F0026
:1019D0008DF80E1002928DF80730FFF797FE9DF8F4
:1019E0000F00FFF79FFD9DF80E00FFF7B1FEFFF718
:1019F0008DFE9DF80F00013002999DF80720C0B2BE
:101A0000FFF70AFEFFF79AFE04B080BD80B582B0F2
:101A10008DF807008DF806108DF80520FFF776FE8B
:101A20009DF80700FFF77EFD9DF80600FFF790FE8A
:101A30009DF80500FFF78CFEFFF780FE02B080BD29
:101A400086B000210591049102200390029101903B
:101A500043F60800C4F20200006800F00C00059094
:101A60000598009040B1FFE7009804280ED0FFE7EA
:101A70000098082814D059E040F20001C2F2000199
:101A800042F20040C0F2F400086059E040F2000168
:101A9000C2F2000147F64000C0F27D1008604FE03E
:101AA00043F60400C4F202000168C1F380510291C0
:101AB000006800F03F000190029888B1FFE70199AB
:101AC00047F64000C0F27D10B0FBF1F043F6040190
:101AD000C4F202010968C1F388114843049010E080
:101AE000019942F20040C0F2F400B0FBF1F043F67D
:101AF0000401C4F202010968C1F38811484304904B
:101B0000FFE743F60400C4F20200006800F440312D
:101B1000022000EBD130039004980399B0FBF1F060
:101B200040F20001C2F20001086009E040F2000149
:101B3000C2F2000142F20040C0F2F4000860FFE788
:101B400043F60800C4F202000068C0B2010944F282
:101B50003C20C0F60000405C0590059A40F2000170
:101B6000C2F200010868D040086006B0704700006B
:101B70004EF68851CEF20001086840F4700008600B
:101B800043F60002C4F20202106840F00100106047
:101B900043F60801C4F202010020086011684FF604
:101BA000FF73CFF6F6631940116043F60403C4F2E5
:101BB000020343F21001C2F200411960116821F4DE
:101BC0008021116043F60C01C4F2020108604EF658
:101BD0000851CEF200014FF000600860704700002D
:101BE00080B582B01020C4F200000068C007A8B31E
:101BF000FFE700F0F1FC014640F26800C2F200008D
:101C000001900180008800F0F3FB0198017840F218
:101C10006C00C2F20000036840F27002C2F20002DF
:101C2000D154006843F69621884208DCFFE740F271
:101C30006C01C2F2000108680130086006E040F261
:101C40006C01C2F2000100200860FFE71021C4F21D
:101C50000001086820F001000860FFE702B080BDC5
:101C600081B08DED000A42F27051C2F201010020F4
:101C70000860FFE742F27050C2F2010090ED000AE6
:101C8000B8EE400A9DED001AB4EE410AF1EE10FAEA
:101C900001DAFFE7EEE701B07047000040F21040C4
:101CA000C4F200000068C00780B1FFE740F21041B5
:101CB000C4F20001086820F00100086042F270518F
:101CC000C2F20101086801300860FFE770470000B8
:101CD00081B040F60041C4F2020108684FF6FF727D
:101CE0009043086040F61841C4F202014FF480505E
:101CF00008604FF00060086001200090FFE7009846
:101D000098B1FFE740F61841C4F202014FF40050C9
:101D1000086040F61040C4F20200006800F0800045
:101D200000904FF000500860E9E740F60041C4F22F
:101D30000201086845F255521043086001B070472F
:101D400081B08DF803009DF9030000280ED4FFE751
:101D50009DF9031001F01F02012090404A094EF244
:101D60000011CEF2000141F82200FFE701B07047F8
:101D700080B582B08DF80700FFF7AAFF40F6184142
:101D8000C4F202014FF0006008604FF0805008601C
:101D90009DF8070000F042FCFFF786FD02B080BD11
:101DA00080B584B003900291019202980068039A72
:101DB00044F29221C0F60001FEF7BEFA039801F04A
:101DC00008FF41EC100B01F0FBFA01F089F89FEDE0
:101DD0000A1B53EC112B51EC100B01F081FC41EC70
:101DE000100B51EC100B01F0C5FE0199086004B016
:101DF00080BD00BF00BF00BF000000000000F03F3A
:101E000043F63001C4F20201086840F002000860A5
:101E100040F20041C4F20201086820F0406008600E
:101E2000086840F08060086040F20441C4F202019A
:101E3000086820F40050086040F20841C4F2020132
:101E4000086820F04060086040F20C41C4F20201D2
:101E5000086820F0406008607047000080B582B0DC
:101E6000FFF7EEFD43F63001C4F20201086840F0CE
:101E70000800086040F60041C4F202010868002230
:101E8000CFF23F0210400860086845F25552C0F298
:101E900040521043086040F61841C4F202014FF06E
:101EA000006008604FF0805008604FF000500860FC
:101EB0004AF2280000F01AF93820FFF759FF3C20B9
:101EC000019000F013F90C20FFF752FF019800F089
:101ED0000DF90120FFF74CFF4FF4FA6000F006F90E
:101EE0000620FFF745FF02B080BD000043F6300139
:101EF000C4F20201086840F0010008600021C4F249
:101F00000201086840F4404008600C21C4F202015C
:101F1000086820F44040086043F64401C4F202011E
:101F2000086840F48070086042F20801C4F20101C0
:101F3000086820F00100086042F20402C4F20102C5
:101F4000106820F040701060086820F002000860FF
:101F500042F21002C4F20102106820F46000106026
:101F6000106840F4C000106042F23402C4F2010272
:101F7000106820F01F001060106840F0070010602B
:101F8000086840F0010008607047000043F6300127
:101F9000C4F20201086840F0010008600021C4F2A8
:101FA0000201086840F440700860086840F440602E
:101FB000086043F64001C4F20201086840F0005096
:101FC000086047F20041C4F20001086840F00100D7
:101FD0000860086840F48030086047F20841C4F2A5
:101FE00000010020086047F21441C4F200010860BB
:101FF0007047000080B581B043F63001C4F20201A1
:10200000086840F00800086040F60041C4F2020190
:10201000086820F470200860086840F420200860F8
:1020200001208DF803008DF802009DF803C0082000
:10203000A0EBCC0189000F2202FA01FE40F62041FC
:10204000C4F2020151F82C3023EA0E0341F82C307F
:102050009DF803C0A0EBCC008300072000FA03FE2C
:1020600051F82C3043EA0E0341F82C309DF802C0A1
:102070000923A3EBCC0E4FEA8E0E02FA0EFE51F8A6
:102080002C2022EA0E0241F82C209DF80220A3EB1E
:10209000C2039B0000FA03F351F82200184341F8F1
:1020A000220043F64001C4F20201086840F4802097
:1020B000086044F60C01C4F20001086842F20C0208
:1020C0001043086040F20000C2F20000006848F2CD
:1020D000B511C1F64E31A0FB0110800A44F608018B
:1020E000C4F20001086001B080BD000082B0019020
:1020F000FFE70198411E0191F0B1FFE700208DF844
:102100000300FFE79DF8030040F20001C2F2000166
:1021100009684DF68362C4F21B32A1FB0221B0EBC9
:10212000115F08D2FFE700BFFFE79DF80300013011
:102130008DF80300E6E7DCE702B0704780B5CCB06D
:10214000002008904B9040F60000C4F202000D21E0
:10215000FFF780F908996A460320106041F60000F5
:10216000C4F20200012207920223FFF78FF9FFF762
:1021700075FE8020FFF7FCFD0798FFF7F9FDFFF7DC
:10218000B5FEFFF703FFFFF73BFEFFF7A5FBFFF7E9
:10219000E5F9FFF7DFFBFFF72DFF4FF47A70FFF74C
:1021A000F9FAFFF731FB089B44F27520C0F60000F6
:1021B00008211A4600F042FA9FED8A0A8DED060AC0
:1021C000FFF74EFD0798FFF7D3FD0799089B44F2F0
:1021D0005420C0F600001A4600F030FA9DED060AC1
:1021E000FFF73EFD0798FFF7C3FD0799089B44F2F0
:1021F0005220C0F600001A4600F020FA9DED060AB3
:10220000FFF72EFD0798FFF7B3FD0799089B44F2EF
:102210005020C0F600001A4600F010FA9DED060AA4
:10222000FFF71EFD0798FFF7A3FD0799089B44F2EF
:102230004E20C0F600001A4600F000FA9DED060A96
:10224000FFF70EFD0798FFF793FD0799089B44F2EF
:102250004C20C0F600001A4600F0F0F99DED060A89
:10226000FFF7FEFC0798FFF783FD089842F26C51D8
:10227000C2F201010860FFE742F26C50C2F20100B5
:10228000006843F69621884220DCFFE742F26C505A
:10229000C2F20100026840F27001C2F20001895CE2
:1022A00000EE101AB8EE400A016843F60C30C2F294
:1022B000000000EB810080ED000AFFE742F26C5164
:1022C000C2F20101086801300860D5E743F60C301E
:1022D000C2F200000EA900F0A3F80D9001200590B5
:1022E000FFF746FD0D98C0EB0011880048F6890203
:1022F000C8F6880250FB02F000EB8101C81000EB29
:10230000D17000EE100AB8EEC00A8DED0C0A9DEDFA
:102310000C0ABDEEC00A10EE100A4AA949AAFFF73E
:102320003FFD44F26420C0F6000010210023049316
:102330001A4600F083F9049B059A4A98499900F0DF
:102340007DF99FED290AFFF78BFC0598FFF710FD3B
:10235000049905980B910A90FFE70A980D990139A5
:10236000884212DAFFE70A9A0EA800EB820150F8C1
:10237000220051F8041C411A0B9800EBA1000B90AD
:10238000FFE70A9801300A90E7E70B980D9990FB58
:10239000F1F0099009984AA949AAFFF701FD44F212
:1023A0007E20C0F600001321002303931A4600F09C
:1023B00045F9039B4A9849990122029200F03EF99F
:1023C0009FED0A0AFFF74CFC0298FFF7D1FC039B34
:1023D00044F25620C0F600000D211A4600F02EF9F6
:1023E000FFE7FEE700401C4500409C450050434786
:1023F00081B0ADF80200BDF8020047F20841C4F216
:102400000001086001B0704781B0ADF80200BDF86E
:10241000020047F21441C4F20001086001B07047A5
:1024200080B58EB00D900C9144F29520C0F600005E
:102430000921002301931A4600F000F90198099040
:1024400008900790069005900490FFE7049843F6E3
:102450009721884215DCFFE70D98049900EB810075
:1024600090ED001A9DED070AB8EEC00A30EE010AA1
:10247000BDEEC00A8DED070AFFE704980130049015
:10248000E4E707984BF27321C4F2E75150FB01F1E6
:10249000081300EBD170039000200290FFE7029830
:1024A00043F6972188427ADCFFE70D98029900EB0A
:1024B000810090ED000ABDEEC00A10EE100A0BA9D3
:1024C0000AAAFFF76DFC0D98029900EB810090EDD0
:1024D000000ABDEEC00A10EE100AFFF795FF0D9836
:1024E000029900EB810090ED000A9DED031AB8EE11
:1024F000C11AB4EE410AF1EE10FA04DBFFE70998C5
:102500000130099024E00D98029900EB810090EDD4
:10251000000A9DED031AB8EEC11AB4EE410AF1EEBD
:1025200010FA14DAFFE70D98029900EB810010ED24
:10253000010A9DED031AB8EEC11AB4EE410AF1EE9C
:1025400010FA04DAFFE7002009900590FFE7FFE7A3
:1025500009980A2810D1FFE7059868B9FFE700201D
:10256000099002980C99069A41F8220006980130C9
:10257000069001200590FFE709980A2806D1FFE799
:102580000A204FF47A7100F09BF8FFE7B7EE000ADB
:10259000FFF766FBFFE70298013002907FE706989D
:1025A00001380EB080BD000080B582B08DF8070004
:1025B000FFF78EFB40F61841C4F202014FF40060B1
:1025C00008604FF0805008609DF8070000F026F882
:1025D000FFF76AF902B080BD42F20001C4F20101C6
:1025E000086820F00200086042F20801C4F201010C
:1025F000086840F080400860FFE742F20000C4F243
:10260000010000688007002801D4FFE7F5E742F2E7
:102610004C00C4F20100006880B2704781B08DF8B0
:10262000030040F61841C4F202014FF47F00086035
:102630009DF80300086001B07047000080B588B0C5
:102640000790069105920493FFF742FBFFF726F9E6
:102650000598012810D1FFE700200390FFE70398B9
:10266000272808DCFFE71420FFF782FBFFE7039829
:1026700001300390F3E7FFE700200290FFE70298A4
:102680000499884208DAFFE71420FFF771FBFFE79F
:10269000029801300290F2E700200190FFE70198D4
:1026A000069988420ADAFFE707980199405CFFF72C
:1026B0007BFFFFE7019801300190F0E708B080BD93
:1026C00080B584B00390029100200190029944F2F9
:1026D0004020C0F20F0090FBF1F00090FFE701985E
:1026E00003994FF47A725143009A91FBF2F18842B8
:1026F00012DAFFE740F21441C4F20201086880F4E4
:1027000000500860009800EBD0704010FFF7EEFC1E
:10271000019801300190E2E704B080BD5FEA400C0F
:1027200008BF91F0000F4FEA8C234FEAC12243EA21
:1027300051514FEA1C5018BF00F5F0404FEA3000ED
:1027400018BF41F000415FEA6C5C00F02980BCF1E9
:10275000FF3F08BF40F080407047130C06BF1204D3
:102760004FF0100C4FF0000C130E04BF12020CF1CE
:10277000080C130F04BF12010CF1040C930F04BFDB
:1027800092000CF1020CD30F04BF52000CF1010CAB
:1027900011464FF00002A0F11F00A0EB0C007047A3
:1027A00011F0004F08BF704731F000413FF4D5AF42
:1027B0000B0C06BF09044FF0100C4FF0000C0B0E71
:1027C00004BF09020CF1080C0B0F04BF09010CF146
:1027D000040C8B0F04BF89000CF1020CCB0F04BF5B
:1027E00049000CF1010CCCF1200322FA03F341EA79
:1027F000030102FA0CF2A0EB0C0000F1010070479B
:1028000023F07F4720F07F4C80EA030000F0004077
:10281000ACEB070303F57C5303F1FF032DE980497B
:1028200009B44FEA144324EA03484FEA154B25EA5A
:102830000B4E0FF2042606EB13273E7803FB0667C8
:10284000C7F5000707FB06F64FEAD64606F1020673
:102850004FEA543707FB066CCCF1005C4FEA1C478B
:102860002CEA074C0CFB06F507FB06F404EB1546B7
:102870004FEA961649085FEA320234BF00204FF053
:1028800000404FEAD13706FB07FC4FEA1C4C0CFB1B
:102890000BF7D21B03FB0CF761EB07010CFB0EF7E8
:1028A000B0EB074072EB17420CFB08F734BFA2EB0A
:1028B0000742B2EB074261EB17414FEA0C444FEA83
:1028C000910706FB07FC4FEA1C4C0CFB0BF7B0EB27
:1028D000C74072EB573203FB0CF734BFA2EBC74281
:1028E000B2EBC74261EB57310CFB0EF7B0EBC70000
:1028F00072EB57720CFB08F734BFA2EBC702B2EBC6
:10290000C70261EB57714FEA816141EA92114FEAC8
:10291000826242EA90124FEA806004EBCC04039F8B
:102920004FEAD13706FB07FC4FEA1C4C0CFB0BF7B8
:10293000D21B03FB0CF761EB07010CFB0EF7B0EBAE
:10294000074072EB17420CFB08F734BFA2EB0742BB
:10295000B2EB074261EB17414FEA8C5504EB9C2424
:102960004FEA910706FB07FC4FEA1C4C0CFB0BF7E8
:10297000B0EBC74072EB573203FB0CF734BFA2EB4E
:10298000C742B2EBC74261EB57310CFB0EF7B0EB1D
:10299000C70072EB57720CFB08F734BFA2EBC702FB
:1029A000B2EBC70261EB57714FEA816141EA9211C4
:1029B0004FEA826242EA90124FEA806015EB4C25A2
:1029C00044F100044FEAD13706FB07FC4FEA1C4CE8
:1029D0000CFB0BF7D21B03FB0CF761EB07010CFBA5
:1029E0000EF7B0EB074072EB17420CFB08F734BF51
:1029F000A2EB0742B2EB074261EB17414FEA81318C
:102A000041EA92414FEA823242EA90424FEA8030F4
:102A10004FEA0C7615EB1C1544F1000448EA034319
:102A20004EEA0B484FF0000EB2EB080C71EB0307B7
:102A300024BF624639464EEB0E0E4FF0000B0018D5
:102A4000524149414BEB0B0BB2EB080C71EB030706
:102A50007BF1000B24BF624639464EEB0E0E4FF061
:102A6000000B0018524149414BEB0B0BB2EB080C29
:102A700071EB03077BF1000B24BF624639464EEB36
:102A80000E0E51EA020718BF46F0010616EB0E764D
:102A900055F1000254F1000103D5BDE88901BDE8FC
:102AA0000088BDE88901BDE80048B619524141EBF4
:102AB0000101A3F10103704780807F7E7D7C7B7ADA
:102AC0007978777676757473727171706F6E6E6DDA
:102AD0006C6C6B6A6A696868676666656464636380
:102AE00062616160605F5F5E5E5D5D5C5C5B5B5A06
:102AF0005A59595858575756565555555454535373
:102B000052525251515050504F4F4F4E4E4D4D4DCD
:102B10004C4C4C4B4B4B4A4A4A4949494848484718
:102B20004747474646464545454444444443434356
:102B300043424242424141419C46002B30D47700FF
:102B40002BD04FEA37071CB503B44FF010004FF0FD
:102B50001001BAF1000F06D0BCF1000FDCBF40F04D
:102B6000080040F008014FF000000FBCBDE8104025
:102B70000BF1010BBBF1010F08BF5FEA170722BF82
:102B800012F1010211F101014FF0004143F1000384
:102B900000F0004043EA00007047F9D35708D0E73F
:102BA00046EA06464FEA164613F1400F1FDD13F1C1
:102BB000200FDFBF16430A46002120335B42BED000
:102BC000C3F1200746EA06464FEA164602FA07F71F
:102BD00046EA070622FA03F2C3F1200701FA07F7D3
:102BE00042EA070221FA03F14FF00003A7E746EAA1
:102BF000020646EA06464FEA164646EA0106BCBF0A
:102C000046EA0646360C4FF000034FF000024FF044
:102C1000000194E72DE9804C70B49A46934691E800
:102C2000380007C831EA400C48BF34EA430C03D5EA
:102C3000FFF7E6FDFFF780FFF0BCBDE8008C2DE953
:102C4000804C70B49A46934691E8380007C810F05B
:102C5000804F08BF13F0804F03D100F005F8FFF755
:102C60006BFFF0BCBDE8008C20F07F4723F07F4C69
:102C700080EA030000F0004007EB0C03A3F57C534F
:102C8000A3F1FE0392F0000F00F0B38095F0000F67
:102C900000F077802DE901494FEA114021EA004810
:102CA0004FEA144624EA064700FB06FC08FB06F63A
:102CB00007FB08F818EB06484CEB164C00FB07F72F
:102CC00018EB07484CEB17404FEA124B22EA0B4E29
:102CD0004FEA154625EA06470BFB06FC0EFB06F6F7
:102CE00007FB0EFE1EEB064E4CEB164C0BFB07F7DC
:102CF0001EEB074E4CEB174B18EB0B0840F1000096
:102D000018EB0E0B58EB000840F100008F1A4FF043
:102D100000014FF000063CBFC943661B14BFB5EB72
:102D2000040C00213CBFC943F61B4FEA174427EAB5
:102D300004454FEA1C472CEA074C04FB076205FBDD
:102D400007F70CFB05F616EB074642EB174204FBB0
:102D50000CFC16EB0C4642EB1C421BEB060658EB38
:102D6000020241414EEA8E0E46EA9E0601D5BDE8BA
:102D70000189B619524141EB0101A3F10103BDE8FC
:102D800001894FEA144524EA05464FEA114721EA32
:102D9000074C05FB07F406FB07F70CFB06F111EBEC
:102DA000074144EB174405FB0CFC11EB0C4144EBD1
:102DB0001C444FEA124722EA074C05FB07F206FBC8
:102DC00007F70CFB06F616EB074642EB174205FB2E
:102DD0000CFC16EB0C4642EB1C456A1854F1000142
:102DE00048BF7047B619524141EB0101A3F10103FD
:102DF000704795F0000F37D04FEA114221EA0246A2
:102E00004FEA144724EA074C02FB07F106FB07F7D9
:102E10000CFB06F414EB074441EB174102FB0CFCDE
:102E200014EB0C4441EB1C414FEA154725EA074CD3
:102E300002FB07F506FB07F70CFB06F616EB074649
:102E400045EB174502FB0CFC16EB0C4645EB1C4210
:102E5000121951F1000148BF7047B619524141EBB8
:102E60000101A3F1010370474FEA144524EA054626
:102E70004FEA114721EA074C05FB07F106FB07F76C
:102E80000CFB06F212EB074241EB174105FB0CFC71
:102E900012EB0C4251EB1C414FF0000648BF70474B
:102EA000921841EB0101A3F10103704703B40198AB
:102EB0004100009850EAC12018BF04204A0D18BFF5
:102EC00040F0010040F2FF72B2EB515F08BF40F0EA
:102ED0000200012808BF052002B070470000000072
:102EE0002DE9F0412DED020B9FED3D0B2DED028BF9
:102EF0009FED3D8BDDE90254C4F30A50A0F2FF368A
:102F0000142E37DA002E18DA53EC102B9DED020B3D
:102F100051EC100B00F0E4FB53EC182B00F0AAFF6F
:102F200057D2002CA4BF0024254652DA24F00040DA
:102F3000284318BF2E4C4CD01AE02E4820FA06F732
:102F400004EA070028431FD053EC102B9DED020B21
:102F500051EC100B00F0C4FB53EC182B00F08AFF6F
:102F600037D2002C03DA4FF48010F0400444BC4305
:102F700000252EE0332E07DCA6F114004FF0FF31C0
:102F800021FA00F73D4206D19DED020BBDEC028B0C
:102F900002B0BDE8F08153EC102B9DED020B51EC1B
:102FA000100B00F09DFF53EC182B00F063FF10D2C4
:102FB000002C0DDA142E08BF641C09D0C6F13400B1
:102FC000012101FA00F02844A84238BF641C0546DC
:102FD000BD43CDE902549DED020BD7E70000000090
:102FE0009C7500883CE4377E000000000000000073
:102FF0000000F0BFFFFF0F0070B5D94B00242DED8E
:10300000020B2DED108BDDE91010984205DA20F04F
:1030100000429A4201D809D141B19DED100BBDEC9F
:10302000108B02B0BDE8704000F0F6BAB0F5801F1A
:1030300026DA11430BD0002813DA0120FDF7DAF964
:10304000BDEC108B02B0BDE8704000F0F1BA022078
:10305000FDF7D0F900F0C8FA51EC100B00F034FB8A
:103060009EE06FF035049FEDC00B53EC102B9DEDEF
:10307000100B51EC100B00F0FFFDCDE910010846DC
:1030800004EB2051C0F31304B948A1F2FF312044EE
:1030900000F4801080F07F6282F04052224301EB06
:1030A00020559FEDB50B119253EC102B9DED100B9D
:1030B00051EC100B00F020FF41EC180BA01CC0F3EA
:1030C00013009FEDAFDB9FEDB0EBB14E7E440328C4
:1030D0006CD296ED000B51EC180B53EC102B00F05A
:1030E0000DFD1DD1002D01BF96ED000BBDEC108B29
:1030F00002B070BD284600F06CFD41EC180B53EC9B
:103100001D2B00F0B9FD41EC190B53EC1E2B51ECBB
:10311000180B00F0B1FD53EC192B00F0E1FA3FE081
:103120009FED9D0B51EC180B53EC102B00F0A4FD00
:103130009FED9B1B53EC112B00F0D2FE41EC190BC1
:1031400053EC182B51EC180B00F096FD53EC192B97
:1031500000F092FD41EC190B002D04BF53EC192B2C
:1031600051EC180B1AD0284600F033FD41EC1A0B35
:1031700053EC1D2B00F080FD53EC192B00F0B0FE3A
:1031800053EC182B00F0B8FE41EC180B53EC1E2B3F
:1031900051EC1A0B00F070FD53EC182B00F0ACFE54
:1031A000BDEC108B02B041EC100B70BD9FED7E0B9F
:1031B00051EC180B53EC102B00F092FA41EC100B71
:1031C00051EC180B53EC102B00F03EFB41EC190BAB
:1031D000284600F0FEFC41EC1B0B53EC192B51EC84
:1031E000190B00F049FD41EC1A0B714853EC1A2BF6
:1031F000261851EC1A0B00F03FFD41EC1F0B6D48F7
:10320000C4F1510404F5D724B0EE4F0AF0EE6F0A72
:103210000321784400F06CF953EC1F2B51EC100B98
:1032200000F02AFD41EC1C0B6348B0EE4F0AF0EEB3
:103230006F0A0421784400F05BF953EC1A2B51EC2F
:10324000100B00F019FD344353EC1C2B00F048FA2E
:1032500041EC1C0B002C4CDD9FED510B51EC180B7D
:1032600053EC102B00F008FD53EC182B00F004FD7C
:1032700041EC1A0B55B353EC1D2B51EC1B0B00F01A
:10328000FBFC41EC1D0B53EC1C2B51EC1A0B00F01A
:1032900027FA53EC192B00F0EFFC53EC1D2B00F038
:1032A0001FFA53EC1A2B00F01BFE53EC182B00F006
:1032B00023FE41EC180B53EC1E2B51EC1B0B00F0C2
:1032C000DBFC53EC182B00F017FE69E753EC1C2BCA
:1032D00051EC1A0B00F004FA53EC192B00F0CCFC63
:1032E00053EC1A2B00F0FCFD53EC182B00F0F8FD0A
:1032F00056E735B353EC1D2B51EC1B0B00F0BCFC17
:1033000041EC1A0B53EC1C2B51EC180B00F0F4FDA4
:1033100053EC192B00F0B0FC53EC1A2B00F0ECFD31
:1033200053EC182B00F0E8FD41EC180B53EC1E2B6E
:1033300051EC1B0B00F0A0FC53EC182B00F0DCFD53
:103340002EE753EC1C2B51EC180B00F0D5FD53EC81
:10335000192B00F091FC53EC182B00F0C1FD1FE776
:103360000000F07F0000000000000000000050435B
:10337000645F090000000000000000000000F03F52
:10338000763C7935EF39EA3D0000E0FE422EE63F1B
:10339000A810000000000000555555555555D53F63
:1033A000000000000000E03F0000000000000040BE
:1033B00086EBF9FFE20E0000D80E000000000000CE
:1033C00070B5414A00252DED020B2DED048BDDE992
:1033D0000404944205DA24F00041914201D809D155
:1033E00040B19DED040BBDEC048B02B0BDE8704014
:1033F00000F012B9B4F5801F26DA08430BD0002C78
:1034000013DA0120FCF7F6FFBDEC048B02B0BDE837
:10341000704000F00DB90220FCF7ECFF00F0E4F87A
:1034200051EC100B00F050F946E09FED290B6FF0C6
:10343000350553EC102B9DED040B51EC100B00F0F7
:103440001BFCCDE904010C4605EB2450A0F2FF3033
:10345000C10F40F2FF32521A62F31F54084400F0C9
:10346000B8FB05949DED040B41EC180B51EC100BCF
:1034700000F0F5F89FED181B53EC112B00F0FCFB4E
:103480009FED170B41EC190B53EC102B51EC180B63
:1034900000F0F2FB53EC192B00F022F99FED120B18
:1034A00041EC190B53EC102B51EC180B00F0E4FB22
:1034B00053EC192B00F014F9BDEC048B02B041EC75
:1034C000100B70BD000000000000F07F0000000045
:1034D00000000000000050430EE526157BCBDB3FCB
:1034E000362BF111F3FE593D00609F501344D33F3A
:1034F00070B504462DED028B4D1E00EBC500B0EEFD
:10350000408AF0EE608A90ED000B35F0060017D08F
:1035100053EC182B51EC100B00F0AEFB41EC100BF0
:103520006D1E04EBC50090ED001B51EC100B53EC2D
:10353000112B00F0D5F841EC100B35F00600E7D167
:10354000022D36D0042D1CD0062D1CBFBDEC028BE5
:1035500070BD53EC182B51EC100B00F08DFB94ED6B
:103560000A1B53EC112B00F0BBF853EC182B00F0A6
:1035700083FB94ED081B53EC112B00F0B1F841ECE8
:10358000100B53EC182B51EC100B00F075FB94ED65
:10359000061B53EC112B00F0A3F853EC182B00F092
:1035A0006BFB94ED040B53EC102B00F099F841ECFD
:1035B000100B53EC182B51EC100B00F05DFB94ED4D
:1035C000021B53EC112B00F08BF853EC182B00F07E
:1035D00053FB94ED001B53EC112B00F081F8BDEC74
:1035E000028B41EC100B70BD9FED070B10B553EC37
:1035F000102B9FED070B51EC100B00F025F941EC5F
:10360000100B10BD000000000000000000000000D2
:10361000000000000000F03F10B553EC102B51ECFF
:10362000100B00F05DF841EC100B10BD0000000025
:103630009FED050B10B553EC102B51EC100B00F067
:1036400003F941EC100B10BD000000000000000069
:1036500030380A2801D2012070470020704710B589
:1036600041EC100BFFF7C8FC51EC100B10BD000033
:1036700010B500290AD00878002807D005487844FA
:10368000FCF772FE002801D0002010BD02487844EB
:1036900010BD0000420C00003A0C000010B50029DB
:1036A0000AD00878002807D005487844FCF75CFE6B
:1036B000002801D0002010BD0248784410BD000051
:1036C000320C00002A0C000081F00041704780F0AD
:1036D0000040704721F00041704720F000407047E3
:1036E00010B591EA030F48BF83F0004300F10C844A
:1036F000841A71EB030C05D2121943EB0C03001B67
:1037000061EB0C014FEA1154A4EB135CDFF81CE1F0
:103710001EEA430F18BF9EEA445F00F0748021EA5E
:10372000045123EA0E0343F48013DCF1200E32D35C
:1037300022FA0CFE10EB0E0023FA0CFE41EB0E01F8
:10374000CCF1200E03FA0EFE10EB0E00CCF1200E91
:1037500051F10001B1F5801F32D201EB045112FA90
:103760000EF2BDE8104058BF7047401C38BF5FEAFA
:10377000420218BF7047002814BF20F0010041F139
:1037800000014FEA410313F5001F38BF7047A1F154
:10379000C04100F069BB012A43EB0302ACF1200CED
:1037A000DCF11F0E32BF4FF0000E23FA0CF310EBCA
:1037B000030041EB0451B4EB115FD0D0A1EB0451F5
:1037C00001F58011490801EB04515FEA30000ED386
:1037D00050F1000038BF12FA0EFE08D1BDE81040CB
:1037E000C9E7401C38BF5FEA4202CAD1C3E7BDE85F
:1037F00010404FEA410313F5001F38BF7047A1F195
:10380000C04100F031BB9EEA445F08D011EA5E0F70
:10381000BDE8104004BF01F0004100207047BDE842
:10382000104070B500F0D2FA64FBBE3E0000E0FF2D
:10383000491058BFC1F140415B1058BFC3F140432C
:103840008B42EFF3008070472DE9C04130B4DFF8C0
:10385000A4C23CEA111418BF3CEA131400F0ED8036
:103860001CEA111481EA030544EAD57418BF1CEA66
:10387000131500F0C880A4EB050404F17F7404F56F
:1038800000344FF0004545EAC12145EAC32341EA2F
:10389000505143EA52534FEAC0204FEAC2229942A4
:1038A00008BF904200F09D804FEA13650FF2441666
:1038B000765D4FEA134506FB05F7C7F1807706FBF7
:1038C00007F74FEAD737A7FB03687642A7FB06CE78
:1038D000C8F5803838BFA8F1010807FB08E6A6FB49
:1038E000028C4FF0000EE6FB03CEDCF1000CCEF1B3
:1038F000004E38BFAEF1010EA6FB0C584FF000078A
:10390000E6FB0E87A1FB08C6A0FB07CE16EB0E0652
:103910004FF0000545F10005E1FB076515F1E04EAC
:103920007EBFA4F580345FEA46066D4116F180073C
:1039300045F100054FEA172747EA05674FEA1525C5
:103940004FEA0666A6F1DE46B6F1805F20D938461A
:1039500005EBC47124F0010C01EB0C11BCF1FE6FFE
:1039600002D8F0BCBDE8008124425CBF01F5801E96
:103970009EEAC47F02D4F0BCBDE80081244200F17D
:103980003980A1F1C041F0BCBDE8004100F06CBA43
:103990004FEAD02040EA41504FEAD1214FEAD222EB
:1039A00042EA43524FEAD323A7FB028607FB036692
:1039B00005FB02661EEA0E0F58BFA6EB0056B6EBDB
:1039C00000564FEA520E4EEAC37E18EB0E0E56EB2F
:1039D000530EBCD518EB02085E417F1C55F1000563
:1039E000B5E74FF480154FF000074FF000064FF099
:1039F0000008ACE701F1C04101F000414FF00000C8
:103A0000F0BCBDE800810CEA131511EA0C1F00D0D0
:103A10000CE013EA0C1F00F026804FF0000081EA52
:103A2000030101F00041F0BCBDE80081F0BCBDE83D
:103A3000004181EA030100F017BAF0BCBDE8004183
:103A400070B500F0C3F900BF097EFC3E00F007B876
:103A50004FF0000081EA030101F00041704781EA64
:103A6000030100F001BAF0BCBDE8004122494FF06B
:103A700000007047FFFDFBF9F7F5F4F2F0EEEDEB17
:103A8000E9E8E6E4E3E1E0DEDDDBDAD8D7D5D4D35C
:103A9000D1D0CFCDCCCBCAC8C7C6C5C4C2C1C0BFA8
:103AA000BEBDBCBBBAB9B8B7B6B5B4B3B2B1B0AFAE
:103AB000AEADACABAAA9A8A8A7A6A5A4A3A3A2A192
:103AC000A09F9F9E9D9C9C9B9A999998979796954D
:103AD00095949393929191908F8F8E8E8D8C8C8BE9
:103AE0008B8A898988888787868585848483838271
:103AF000828181800000FF070000F87F51EA030CFB
:103B000017D41CF5801F58BFBCF5801F00F106803C
:103B1000994218BF704708BF9042704707D711F508
:103B2000801F58BF13F5801F19D4994270478942EE
:103B300070471CF5801F08D5BCF5801FF7D58B4258
:103B400018BF704708BF824270474FF4001C1CEB3F
:103B5000410F38BF1CEB430F01D28B42704770B549
:103B600000F034F9922449004FF000514FF0805397
:103B7000FFF75EBE4FEA41034FEA5353A3F580635C
:103B8000D3F11E03C8BFD3F1210C0CDD4FF000426E
:103B900042EAC12242EA505232FA03FC8CEAE17C4A
:103BA000ACEBE1707047102BC4BF0020704703F5E9
:103BB000787CBCF1FF3F04D06FF0004282EA210024
:103BC000704770B500F002F94992248000207047D8
:103BD000F2E710F0004248BF4042B0FA80F310FA1A
:103BE00003F10AD0C3F11D0303F5806302EB035216
:103BF0004FEA415002EBD12170474FF0000070476F
:103C000051EA030C17D41CF5801F58BFBCF5801F68
:103C100000F10680994218BF704708BF9042704774
:103C200007D711F5801F58BF13F5801F19D499428B
:103C30007047894270471CF5801F08D5BCF5801F6E
:103C4000F7D58B4218BF704708BF824270474FF4C8
:103C5000001C1CEB410F38BF1CEB430F01D28B4201
:103C6000704770B500F0B2F8922449004FF000514F
:103C70004FF08053FFF7DCBD70B5DFF848C11CEA98
:103C8000111E1EBF1CEA13159EEA0C0F95EA0C0FBD
:103C900000F06F8081EA03044EEAD47EAE4421EA4C
:103CA0004C1123EA4C1341F4801143F48013AEF11C
:103CB0007F7EA1FB024CA0FB0365361955EB0C057A
:103CC000A1FB034C4CF10003A0FB021C16EB0C06FD
:103CD000654153F10003094218BF46F0010613F491
:103CE000007F0BD14FEA03314FEA053041EA15510D
:103CF00040EA165034036FF003020AE04FEAC32192
:103D00004FEAC52041EA555140EA5650F4026FF09F
:103D1000020202EB2E4201EB025585EACE710AD077
:103D20005FEA440C18BF24F0004450F1000041F158
:103D3000000120EAD47040F2FE7C624500D270BDE2
:103D4000A84214BF4FF080444FF04044002E08BFFB
:103D50000024BEF1806FA8BFA1F1C041BDE8704052
:103D600080F2828001F1C04101F000414FF000007B
:103D700070470CEA13159EEA0C0F18BF95EA0C0F5A
:103D800006D081EA030E4FF000000EF0004170BD36
:103D900000F01CF88900013E00F007B800F009B8F7
:103DA0004FEA430C5FEA5C5C08D081EA030100F053
:103DB0005BB84FEA410C5FEA5C5CF6D102494FF018
:103DC000000070470000FF070000F87F0EF1020EB0
:103DD0002EF0030E5EF8046B364205D4012A43EB45
:103DE000030515F5001F12D8012841EB010C1CF545
:103DF000001F0CD80ED14FEAD17C0CEB4C0C0CF10F
:103E0000020C15F5001F08BF4CEBD37C04E04FF00B
:103E1000080C01E04FEAD37C0CEB4C0526FA05F6C2
:103E200006F00706B6F1040C06D20EEB860CBDE8D0
:103E300070404CF0010C6047DFE80CF0090B020207
:103E40004FF00041A1F500214FF0000070BD194670
:103E50001046012851EB010418BFD4F5001484BFAB
:103E6000002001F0004170BD0808A0F500114FEAE4
:103E70003101704753EA010C17D41CF5801F58BF5D
:103E8000BCF5801F00F106808B4218BF704708BF49
:103E90008242704707D713F5801F58BF11F5801F66
:103EA00019D48B4270479B4270471CF5801F08D580
:103EB000BCF5801FF7D5994218BF704708BF9042E4
:103EC00070474FF4001C1CEB430F38BF1CEB410F35
:103ED00001D2994270470FB40CBC03BCFFF7C1BEBE
:103EE00010B591EA030F81F000413FF501AC83F07A
:103EF000004300F009B8000010B591EA030F48BF75
:103F000083F000433FF5F4AB841A71EB030C07D246
:103F10008CF0004C121943EB0C03001B61EB0C01FD
:103F20004FEA1154A4EB135CDFF8A4E11EEA430F3F
:103F300018BF9EEA445F00F0B48021EA045123EAEE
:103F40006E035242C3EB6E0338BF5B1EDCF1200EE2
:103F500025D322FA0CFE10EB0E0043FA0CFE41EBC7
:103F60000E01CCF1200E03FA0EFE10EB0E00CCF188
:103F7000200E51F1000129D401EB045112FA0EF286
:103F8000BDE8104058BF7047401C1CBFB2F1004F45
:103F9000704700280CBF491C20F00100704712EB4D
:103FA000020E43EB030218BF4FF0010E4EEA42022D
:103FB000ACF1200CDCF11E0E56D943FA0CFE10EBCE
:103FC0000E00CCF11E0E51F1FF31D5D50EF1010ED0
:103FD00012FA0EFE404141EB010101EB445C5FEA45
:103FE0005C5C10D901EB045110EBDE7038BFBEF100
:103FF000004FBDE8104018BF704700280CBF491C97
:1040000020F00100704734D24FEAD42C24F400642D
:1040100011F500111BD0B1FA81F20B3AA41AA41EBB
:10402000D2F12003914030FA03F31943904001EBA1
:10403000CC7101EB0451002CBDE81040A8BF7047C3
:1040400001F1C04101F000414FF000007047B0FAAB
:1040500080F310FA03F102D1BDE810407047E41A72
:10406000173C4805C90AE2E701EB0451BDE81040DE
:10407000704749104FEA300001EB0451BDE8104091
:1040800002E04FF0000170474A0008BF0042F8D03C
:10409000B2F5001F28BF704701F000414FF000004B
:1040A00070479EEA445F07D011EA5E0FBDE81040FA
:1040B00004BF002100207047BDE8104070B5FFF735
:1040C00085FE00BF40DFF63E104683F0004170479A
:1040D0000000E0FFF1EE100A4FF6FF71C0F2C031B0
:1040E00020EA010040F04070E1EE100A7047FCF752
:1040F000B3BDFCF7E7BE000004FA97999999D93F40
:10410000AF788E1DC571CC3F9FC678D0099AC33F4A
:10411000935555555555E53F599322942449D23F1F
:10412000DE03CB966446C73F44523EDF12F1C23FE6
:1041300000000000000000003031323334353637E3
:1041400038394142434445464030580030313233DB
:1041500034353637383961626364656640307800DB
:104160000400000800000000000000020001000040
:10417000100000000000000000000000000000002F
:1041800030313233343536373839616263646566CD
:104190007870003031323334353637383941424364
:1041A000444546585000000002400000000000A0B6
:1041B0000000000005400000000000C800000000F2
:1041C0000C4000000000409C00000000194000006E
:1041D0000020BCBE0000000034400000BFC91B8EA0
:1041E00000000004B5400000504BCFD06607E2CF7E
:1041F000010000006C4100003E8251AADFEEA734AE
:1042000001000000D9420000DCB5A0E23A301F975F
:10421000FFFFFFFFB4450000FD25A0C8E9A3C14F83
:10422000FFFFFFFFFF3F00000000008000000000D4
:10423000FF3F0000000000800000000000000000C0
:1042400000000000010203040607080931003200E3
:10425000330034003500436F646520636F6D706C0C
:1042600065746500417667206872747261746520B8
:104270002F62706D00426567696E20696E0041763D
:10428000672074696D65206274776E207065616B5C
:1042900073002564004D6561737572696E67000077
:1042A000EC4300080000002004000000E8010008C2
:1042B000F043000808000020702B010004020008F1
:1042C0001C00000043000000F8FFFFFF0C0000008E
:1042D0000E0000000F0000002E0000001001000082
:1042E00043000000F8FFFFFF0040404040404040D6
:1042F00040404141414141404040404040404040B9
:10430000404040404040404040050202020202025C
:1043100002020202020202020220202020202020AB
:1043200020202002020202020202909090909090BF
:10433000101010101010101010101010101010107D
:1043400010101010020202020202888888888888F1
:1043500008080808080808080808080808080808DD
:1043600008080808020202024000000000000000E5
:10437000000000000000000000000000000000003D
:10438000000000000000000000000000000000002D
:10439000000000000000000000000000000000001D
:1043A000000000000000000000000000000000000D
:1043B00000000000000000000000000000000000FD
:1043C00000000000000000000000000000000000ED
:1043D00000000000000000000000000000000000DD
:1043E0000000000000000000000000000024F400B5
:04000005080002F9F4
:00000001FF
