:020000040800F2
:10000000284100204D020008550200085702000850
:10001000590200085B0200085D02000800000000B1
:100020000000000000000000000000005F02000867
:100030006102000800000000630200086502000879
:1000400067020008670200086702000867020008EC
:1000500067020008670200086702000867020008DC
:1000600067020008670200086702000867020008CC
:1000700067020008670200086702000867020008BC
:1000800067020008670200086702000867020008AC
:10009000670200086702000867020008670200089C
:1000A000670200086702000867020008670200088C
:1000B000890A0008750B000867020008670200083B
:1000C000670200086702000867020008670200086C
:1000D000670200086702000867020008670200085C
:1000E000670200086702000867020008670200084C
:1000F000670200086702000867020008670200083C
:10010000670200086702000867020008670200082B
:10011000670200086702000867020008670200081B
:10012000670200086702000867020008670200080B
:1001300067020008670200086702000867020008FB
:1001400067020008670200086702000867020008EB
:1001500067020008670200086702000867020008DB
:1001600067020008670200086702000867020008CB
:10017000670200086702000867020008000000002C
:1001800067020008670200086702000867020008AB
:10019000670200086702000867020008670200089B
:1001A00067020008670200086702000800F002F812
:1001B00000F03CF80AA090E8000C82448344AAF1C5
:1001C0000107DA4501D100F031F8AFF2090EBAE8C3
:1001D0000F0013F0010F18BFFB1A43F0010318477B
:1001E000B4100000D4100000103A24BF78C878C1C1
:1001F000FAD8520724BF30C830C144BF04680C602D
:10020000704700000023002400250026103A28BF74
:1002100078C1FBD8520728BF30C148BF0B60704778
:100220001FB501F022F81FBD10B510BD00F036F863
:100230001146FFF7F5FF00F079FF00F054F803B422
:10024000FFF7F2FF03BC00F057F8000009488047B1
:1002500009480047FEE7FEE7FEE7FEE7FEE7FEE7A8
:10026000FEE7FEE7FEE7FEE704480549054A064BC0
:1002700070470000190A0008AD010008283B002063
:1002800028410020283D0020283D0020704770476D
:100290007047000000487047080000207546FFF7CF
:1002A000F9FFAE4605006946534620F00700854633
:1002B00018B020B5FFF7D8FFBDE820404FF000068A
:1002C0004FF000074FF000084FF0000BAC46ACE8D1
:1002D000C009ACE8C009ACE8C009ACE8C00921F02D
:1002E00007018D46704710B50446AFF300802046E5
:1002F000BDE81040FFF7A3BF01491820ABBEFEE7E1
:10030000260002007047000082B00190009143F681
:100310003001C4F20201086840F00400086001994D
:100320000868086001998868886000984100032087
:1003300000FA01F20199C8681043C86002B0704722
:1003400084B0DDF810C0039002910192009343F64F
:100350003001C4F20201086840F04000086041F634
:100360000001C4F2020108680860086808600868B3
:1003700008600868086041F60801C4F202010868D4
:1003800008600868086008680860086808600298E3
:100390004100032000FA01F341F60C01C4F202010E
:1003A0000A681A430A60019A520000FA02F20868C9
:1003B0001043086000984200022000FA02F30A6825
:1003C0001A430A60049A520000FA02F208681043C5
:1003D000086004B07047000081B08DF803009DF8FC
:1003E000030045F61001C4F200010860FFE745F67E
:1003F0001400C4F2000000688007002801D4FFE761
:10040000F5E745F61800C4F20000006801B0704737
:1004100043F64001C4F20201086840F4800008601D
:1004200043F63001C4F20201086840F0020008609F
:1004300040F20041C4F20201086840F42000086064
:1004400040F20441C4F20201086840F440600860D0
:1004500040F20841C4F20201086840F470000860EC
:1004600040F20C41C4F20201086840F4A0000860A8
:1004700040F22441C4F20201086840F48840086058
:1004800045F60001C4F20001086840F4004008602D
:10049000086820F40040086045F60402C4F2000237
:1004A000106840F02D00106045F61C02C4F20002F6
:1004B000E120106045F62002C4F200022E201060F8
:1004C000086840F0010008607047000084B08DF8B3
:1004D0000F0002918DF807209DF8070000909DF80D
:1004E0000F0045F61001C4F200010860FFE745F671
:1004F0001400C4F2000000688007002801D4FFE760
:10050000F5E745F61800C4F200000068FFE7009820
:10051000032820DBFFE7FFE745F61400C4F20000E4
:1005200000684006002801D4FFE7F5E745F6100013
:10053000C4F20000006802994A1C0292087045F655
:100540000001C4F20001086840F48060086000986F
:1005500001380090DBE7FFE745F61400C4F2000025
:1005600000684006002801D4FFE7F5E745F61000D3
:10057000C4F20000006802994A1C0292087045F615
:100580000001C4F20001086820F480600860086877
:1005900040F400700860FFE745F61400C4F2000064
:1005A00000684006002801D4FFE7F5E745F6100093
:1005B000C4F2000000680299087004B0704700009F
:1005C00045F60001C4F20001086840F4806008604C
:1005D000086840F480700860FFE745F61400C4F234
:1005E00000000068C00708B9FFE7F6E770470000A1
:1005F00045F60001C4F20001086840F4007008608C
:100600007047000081B08DF80300FFE745F6140045
:10061000C4F2000000680006002801D4FFE7F5E7F7
:100620009DF8030045F61001C4F200010860FFE7E1
:1006300045F61400C4F2000000684007002801D409
:10064000FFE7F5E701B0704783B002904FF2244016
:10065000019001980299B0FBF1F00138009043F647
:100660004001C4F20201086840F0010008600C215A
:10067000C4F20001086840F0010008602821C4F2BB
:100680000001FF20086000982C21C4F200010860DE
:100690002421C4F20001002008604EF20011CEF2C5
:1006A0000001086840F0805008604FF08041086801
:1006B00040F00100086003B07047000080B584B0CE
:1006C00043F64001C4F20201086840F002000860ED
:1006D00042F20040C0F2F40003904FF47A720292AA
:1006E000039802995143B0FBF1F00138019003984F
:1006F00001990131029A5143B0FBF1F00090019849
:1007000040F22841C4F200010860009840F22C41F8
:10071000C4F20001086040F22441C4F2000100204C
:10072000086040F20C41C4F20001086840F001008A
:1007300008601D2000F070FA62B640F20041C4F279
:100740000001086840F00100086004B080BD0000AE
:1007500080B582B00A20009000F0C0FC009840F6FE
:100760001842C4F2020201924FF40051116000F0ED
:10077000B5FC01994FF00050086002B080BD000048
:1007800043F63001C4F20201086840F0010008603D
:10079000086840F0020008600021C4F20201086805
:1007A00040F480700860086840F48060086040F29F
:1007B0000041C4F20201086840F0010008600868C6
:1007C00040F080500860086840F4804008601821BC
:1007D000C4F202014FF4801008604FF4001008606A
:1007E00040F21841C4F202014FF4803008604FF02B
:1007F000804008604FF400000860704780B584B006
:1008000043F60832C2F200020292D220752101237F
:1008100000F02EF802980078682827D1FFE7002022
:1008200000908DF80F009DF80F20D22001906B21D1
:1008300000F040F8019807218DF80F109DF80F2067
:10084000192100F037F8009901988DF80F109DF8E4
:100850000F201C2100F02EF8009901988DF80F1040
:100860009DF80F201B2100F025F8FFE704B080BDA4
:1008700080B584B08DF80F008DF80E1002928DF8BF
:100880000730FFF79DFE9DF80F00FFF7A5FD9DF8CF
:100890000E00FFF7B7FEFFF793FE9DF80F00013043
:1008A00002999DF80720C0B2FFF710FEFFF7A0FEE7
:1008B00004B080BD80B582B08DF807008DF80610B9
:1008C0008DF80520FFF77CFE9DF80700FFF784FDFB
:1008D0009DF80600FFF796FE9DF80500FFF792FED3
:1008E000FFF786FE02B080BD86B00021059104911D
:1008F000022003900291019043F60800C4F2020026
:10090000006800F00C0005900598009040B1FFE7EA
:10091000009804280ED0FFE70098082814D059E06A
:1009200040F20001C2F2000142F20040C0F2F400C5
:10093000086059E040F20001C2F2000147F64000B1
:10094000C0F27D1008604FE043F60400C4F20200DC
:100950000168C1F380510291006800F03F000190EE
:10096000029888B1FFE7019947F64000C0F27D1078
:10097000B0FBF1F043F60401C4F202010968C1F3CF
:1009800088114843049010E0019942F20040C0F2FF
:10099000F400B0FBF1F043F60401C4F2020109686F
:1009A000C1F3881148430490FFE743F60400C4F202
:1009B0000200006800F44031022000EBD1300390C7
:1009C00004980399B0FBF1F040F20001C2F200017B
:1009D000086009E040F20001C2F2000142F200406A
:1009E000C0F2F4000860FFE743F60800C4F202001A
:1009F0000068C0B2010941F28420C0F60000405CEA
:100A00000590059A40F20001C2F200010868D0404A
:100A1000086006B0704700004EF68851CEF2000123
:100A2000086840F47000086043F60002C4F2020255
:100A3000106840F00100106043F60801C4F20201A2
:100A40000020086011684FF6FF73CFF6F663194077
:100A5000116043F60403C4F2020343F21001C2F230
:100A600000411960116821F48021116043F60C01E6
:100A7000C4F2020108604EF60851CEF200014FF0B8
:100A8000006008607047000080B582B01020C4F29A
:100A900000000068C007002866D0FFE700F09CFB5C
:100AA000014640F26800C2F200000180018800EEB9
:100AB000101AB8EEC00A9FED2D1A20EE010A9FED24
:100AC0002C1A80EE010A43F62431C2F2000181EDB6
:100AD000000A017840F26C00C2F20000036840F2A4
:100AE0007002C2F20002D154006843F69621884297
:100AF00008DCFFE740F26C01C2F200010868013037
:100B0000086006E040F26C01C2F2000100200860BB
:100B1000FFE743F62430C2F2000090ED000A43F6EE
:100B20000930C2F20000009000F0A6F80098019091
:100B3000FFE70198007848B1FFE70198007800F0DE
:100B40006DFBFFE7019801300190F2E70A2000F009
:100B500065FB0D2000F062FB1021C4F20001086863
:100B600020F001000860FFE702B080BD333353403E
:100B700000F07F4540F21040C4F200000068C0075A
:100B800080B1FFE740F21041C4F20001086820F094
:100B90000100086043F62031C2F20001086801300C
:100BA0000860FFE77047000081B040F60041C4F2E2
:100BB000020108684FF6FF729043086040F6184142
:100BC000C4F202014FF4805008604FF000600860EA
:100BD00001200090FFE7009898B1FFE740F6184128
:100BE000C4F202014FF40050086040F61040C4F215
:100BF0000200006800F0800000904FF00050086094
:100C0000E9E740F60041C4F20201086845F2555296
:100C10001043086001B0704781B08DF803009DF962
:100C2000030000280ED4FFE79DF9031001F01F0216
:100C3000012090404A094EF20011CEF2000141F825
:100C40002200FFE701B0704780B582B08DF8070041
:100C5000FFF7AAFF40F61841C4F202014FF000600E
:100C600008604FF0805008609DF8070000F0EEFA31
:100C7000FFF76EFD02B080BD8DB08DED0C0A0B90BC
:100C80009DED0C0ABDEEC00A8DED0A0A9DED0C0A21
:100C90009DED0A1AB8EEC11A30EE410A9FED531AC3
:100CA00020EE010ABDEEC00A8DED090A0998B0F1E7
:100CB000FF3F04DCFFE7099840420990FFE70B98EB
:100CC00008900A9830B9FFE70899481C089030202E
:100CD000087034E000200490FFE70A9801281DDB2B
:100CE000FFE70A9846F26761C6F2666150FB01F3BE
:100CF0009A0802EBD37202EB8202A0EB4200303082
:100D0000049B5A1C04920DF11602D0540A9850FB11
:100D100001F1881000EBD1700A90DEE7FFE704983C
:100D200001280BDBFFE70498411E04910DF116002A
:100D3000405C08994A1C08920870F0E7FFE70899A0
:100D4000481C08902E200870099850B9FFE70899B0
:100D5000481C08903020087008994A1C08920870B6
:100D60003EE00998092806DCFFE70899481C08902E
:100D700030200870FFE700200090FFE70998012865
:100D80001DDBFFE7099846F26761C6F2666150FB1A
:100D900001F39A0802EBD37202EB8202A0EB42004D
:100DA0003030009B5A1C00920DF10602D054099875
:100DB00050FB01F1881000EBD1700990DEE7FFE7EE
:100DC000009801280BDBFFE70098411E00910DF110
:100DD0000600405C08994A1C08920870F0E7FFE79B
:100DE0000899002008700DB0704700BF0050C3473D
:100DF00043F63001C4F20201086840F002000860C6
:100E000040F20041C4F20201086820F0406008602E
:100E1000086840F08060086040F20441C4F20201BA
:100E2000086820F40050086040F20841C4F2020152
:100E3000086820F04060086040F20C41C4F20201F2
:100E4000086820F0406008607047000080B582B0FC
:100E5000FFF74AFD43F63001C4F20201086840F092
:100E60000800086040F60041C4F202010868002250
:100E7000CFF23F0210400860086845F25552C0F2B8
:100E800040521043086040F61841C4F202014FF08E
:100E9000006008604FF0805008604FF0005008601C
:100EA0004AF2280000F01AF93820FFF7CDFE3C2066
:100EB000019000F013F90C20FFF7C6FE019800F036
:100EC0000DF90120FFF7C0FE4FF4FA6000F006F9BB
:100ED0000620FFF7B9FE02B080BD000043F63001E6
:100EE000C4F20201086840F0010008600021C4F269
:100EF0000201086840F4404008600C21C4F202017D
:100F0000086820F44040086043F64401C4F202013E
:100F1000086840F48070086042F20801C4F20101E0
:100F2000086820F00100086042F20402C4F20102E5
:100F3000106820F040701060086820F0020008601F
:100F400042F21002C4F20102106820F46000106046
:100F5000106840F4C000106042F23402C4F2010292
:100F6000106820F01F001060106840F0070010604B
:100F7000086840F0010008607047000043F6300147
:100F8000C4F20201086840F0010008600021C4F2C8
:100F90000201086840F440700860086840F440604E
:100FA000086043F64001C4F20201086840F00050B6
:100FB000086047F20041C4F20001086840F00100F7
:100FC0000860086840F48030086047F20841C4F2C5
:100FD00000010020086047F21441C4F200010860DB
:100FE0007047000080B581B043F63001C4F20201C1
:100FF000086840F00800086040F60041C4F20201B1
:10100000086820F470200860086840F42020086018
:1010100001208DF803008DF802009DF803C0082020
:10102000A0EBCC0189000F2202FA01FE40F620411C
:10103000C4F2020151F82C3023EA0E0341F82C309F
:101040009DF803C0A0EBCC008300072000FA03FE4C
:1010500051F82C3043EA0E0341F82C309DF802C0C1
:101060000923A3EBCC0E4FEA8E0E02FA0EFE51F8C6
:101070002C2022EA0E0241F82C209DF80220A3EB3E
:10108000C2039B0000FA03F351F82200184341F811
:10109000220043F64001C4F20201086840F48020B7
:1010A000086044F60C01C4F20001086842F20C0228
:1010B0001043086040F20000C2F20000006848F2ED
:1010C000B511C1F64E31A0FB0110800A44F60801AB
:1010D000C4F20001086001B080BD000082B0019040
:1010E000FFE70198411E0191F0B1FFE700208DF864
:1010F0000300FFE79DF8030040F20001C2F2000187
:1011000009684DF68362C4F21B32A1FB0221B0EBE9
:10111000115F08D2FFE700BFFFE79DF80300013031
:101120008DF80300E6E7DCE702B0704780B588B0D1
:1011300000200390079040F60000C4F202000D2149
:10114000FFF7E2F803996A460320106041F60000B9
:10115000C4F20200012204920223FFF7F1F8FFF724
:1011600075FE8020FFF770FD0498FFF76DFDFFF717
:10117000B5FEFFF703FFFFF73BFEFFF701FBFFF7AD
:1011800047F9FFF73BFBFFF72DFF4FF47A70FFF7AE
:101190005BFAFFF793FAFFE70020029000F004F8F3
:1011A000029800F00DF8F7E781B0ADF80200BDF845
:1011B000020047F20841C4F20001086001B0704724
:1011C00081B0ADF80200BDF8020047F21441C4F24C
:1011D0000001086001B0704742F20001C4F2010151
:1011E000086820F00200086042F20801C4F2010120
:1011F000086840F080400860FFE742F20000C4F257
:10120000010000688007002801D4FFE7F5E742F2FB
:101210004C00C4F20100006880B2704781B08DF8C4
:101220000300FFE744F60000C4F200000068400637
:10123000002801D4FFE7F5E79DF8030044F6040118
:10124000C4F20001086001B07047000081B08DF861
:10125000030040F61841C4F202014FF47F00086019
:101260009DF80300086001B07047F1EE100A4FF6D8
:10127000FF71C0F2C03120EA010040F04070E1EEA1
:10128000100A704700000000000000000102030483
:1012900006070809B412000800000020040000003E
:1012A000E8010008B81200080800002020410000F2
:0812B000040200080024F40010
:040000050800024DA0
:00000001FF
